:020000040000FA
:1000000078290020C1000000D52E00003920000012
:10001000FFFFFFFFFFFFFFFFFFFFFFFFFFFFFFFFF0
:10002000FFFFFFFFFFFFFFFFFFFFFFFF993E000005
:10003000FFFFFFFFFFFFFFFF053E00003301000051
:1000400035010000350100003501000035010000D8
:1000500035010000350100003501000035010000C8
:1000600035010000FFFFFFFF3501000035010000F2
:10007000350100003501000035010000FFFFFFFFE2
:10008000FFFFFFFFA1110000350100003501000056
:10009000350100003501000035010000294700004E
:1000A00021480000254300001146000035010000F2
:1000B0003501000035010000350100003501000068
:1000C0001D4880471D4880471D4800471D4801695D
:1000D000002908D14169002905D18169002902D18F
:1000E000C169002909D01848C1680901090D002912
:1000F0000ED005290CD006290AD0BFF34F8F134824
:100100001349016013491248C860BFF34F8FFEE7DF
:100110000E4801680E48884200D070470E480F49CB
:1001200001600A480E4901607047FEE7FEE7FEE7FE
:10013000FEE7FEE7FEE70000CD000000D140000032
:100140006501000000030840800108400000002015
:100150000400FA0500ED00E0008108400100000005
:10016000000000000348854600F052FD00480047AB
:10017000A16200007829002030B50B46014600201E
:100180002022012409E00D46D5409D4205D31D469D
:100190009540491B2546954040191546521E002D95
:1001A000F1DC30BD70B500242546002801DA0124B9
:1001B0004042002901DA01254942FFF7DDFFAC4248
:1001C00000D04042002C00D0494270BD0146413968
:1001D000192900D82030704703460B439B0703D0F2
:1001E00009E008C9121F08C0042AFAD203E00B78FC
:1001F0000370401C491C521EF9D27047D2B201E074
:100200000270401C491EFBD270470022F6E710B571
:1002100013460A4604461946FFF7F0FF204610BD74
:10022000421E5378521C002BFBD10B781370491CD3
:10023000521C002BF9D1704730B505462A460B46B3
:1002400010781C78521C5B1C002801D0A042F7D00B
:10025000002C03D0002802D06D1CEFE7284630BDEB
:1002600010B5044605E00B780370401C002B00D04D
:10027000491C521EF7D2204610BDCAB2401E41781A
:10028000401C8A4202D00029F9D100207047421C4C
:100290000178401C0029FBD1801A704710B500225C
:1002A00000E0521C835C8C5CA34201D1002BF8D18E
:1002B000D8B2E1B2401A10BD10B5044600E0401CAF
:1002C0000378002BFBD100E0401C521E04D30B78B6
:1002D000491C0370002BF7D100210170204610BD8E
:1002E00030B505460020034600E05B1C934205D272
:1002F000EC5CC85C201A01D1002CF6D130BDF8B5F9
:1003000002464A40D40F42004B0052085B089A4212
:1003100002D20246084611464A0023D0C30D4A00C5
:10032000DDB2120EAD1A202D35DA49020126490A36
:10033000F6058A19002C00D0524220214F1B11468D
:10034000B9402A411018C20D9A4221D0002C17D072
:10035000012D08DCDA05801AD20F8019D207DBB232
:1003600000F088FBF8BDDA05801A012340001B0667
:10037000C01880185A428018CA0F1043490007E07D
:100380004908C2071143DA05801A8019400880180D
:1003900000F068FBF8BD61000122511A001BF7E76D
:1003A0000122D2075140AAE70122D2075040A6E716
:1003B000024670B54A40D30FDB0740002DD04A00FB
:1003C0002AD0010E140E000212020919400A520A24
:1003D0008418E50104465443000A120A2E045043CF
:1003E000A4194219200CC543AA18120C0125AD030B
:1003F000521C521912047F39240400D0521C10439D
:1004000001D44000491EC2B20C06C0092018401C8D
:100410004008802A02D003E0002070BD4008400060
:10042000002900DA0020184370BD70B502464A402A
:10043000D50F40004A00ED0740085208002814D0AC
:10044000002A12D0C40DD30D41020120C005520272
:10045000490A520AE41A091812187D34914201D34C
:10046000641C00E04900002C01DA002070BD00236C
:10047000914201D3891A0343400849000028F7D16B
:1004800000290AD0914202D10121C90705E0914219
:1004900001D2012101E00121C943E005C018401942
:1004A00000F0E0FA70BD0000F0B50746084658407D
:1004B00087B0C00F049048000E4659004008490814
:1004C000BC1A884105D2384631461E4617460B46AF
:1004D00002465800400810434CD0300D03904005B0
:1004E0005900400D490D0590401A0290402872DADB
:1004F00018030121000B090508430190049800929C
:10050000002805D0019952420020884100920190B4
:10051000029840210A1A0199009800F06FFA0546E6
:100520000C466B4607CB00F08AFAC0197141039A5A
:100530000E0D0023D71756401A467A40164344D072
:10054000049A002A2DD0029A012A039A15DC12057A
:10055000C01A914101263605001C7141D20F059E3B
:10056000D2070093019202962A46234600F0C8FA69
:1005700007B0F0BD38463146FAE71605224A0F4665
:10058000B218C01AB74101210905001C4F410018DB
:100590007F41114618187941E20F10436D196441EB
:1005A00013E0E2076D0815436408C2071443039A79
:1005B00001261205C01A91413605001C7141CE0773
:1005C000400830434908C01851412A46234600F0EC
:1005D0008AFACDE7FFE7049801224000C117121AFA
:1005E00000238B4104983146C417381AA141EEE725
:1005F00030B40124E407634030BC55E730B4012433
:10060000E407614030BC4FE70000E0FFF0B51FB4E5
:1006100088B00B990998002448400999C00F4900F7
:1006200049080991C0070B990090490049080B91AE
:1006300009990898A64608431CD00B990A980843C4
:1006400018D0099801244000420D4800410D099836
:1006500024050003000B204309900B980003000BB6
:1006600020430B9050181C4940180022019014465A
:10067000104605E0002001460DB0F0BD032801DA68
:10068000034600E003239C46C11A0AAE0AE05F005D
:1006900008ADED5B4F00F75B7D430027AA187C4156
:1006A000491C5B1E6145F2DD410004AB5A52210436
:1006B000120C0A43240C401C0828DFDB019802902E
:1006C0000099704601910090059B049A079906983D
:1006D00000F016FAD0E700000DFCFFFFF0B50C4665
:1006E0005C4085B0E40FE40703944C0000266408E6
:1006F00059009446490802460296224321D0624698
:100700000A431ED06200570D4A000E032303550D05
:10071000012402462C492405781B1B0B360B40187C
:1007200023432643614600901C46501AB44103D32C
:100730000098401C009002E0921800985B4100284D
:1007400003DA0020014605B0F0BD002001210905B3
:100750000746864611E064461D46141BB54106D384
:100760006546521BB341744607430C43A646CD076A
:1007700040084908284392185B4105460D43EAD1D9
:100780001046184313D06046194650407140084344
:1007900006D06046101AB34106D20122002306E0BB
:1007A00000220123DB0702E00122D243531000980C
:1007B00074460105381C6141029C039D0019694182
:1007C00000F091F9BFE70000FD030000C217C10F60
:1007D000504010B54018CA079623002100F04AF98E
:1007E00010BD10B500229623114600F043F910BD4C
:1007F0000EB5C217C10F5040CA0740180021054B63
:100800000293019200910A460B4600F079F903B079
:1008100000BD0000330400000EB50549029100211F
:1008200000910A460B46019100F06AF903B000BD41
:1008300033040000C20F410040020123400ADB05DF
:10084000D207090EC0187F2901DA002070479629C7
:1008500003DC9623591AC84001E096398840002AE3
:10086000F4D040427047000070B5CD0F4A00090334
:100870000123090B1B0519430B4BED070024520DF7
:100880009A4201DA002070BD074B34339A4203DCF0
:100890009A1A00F0C3F802E00449511888402C432A
:1008A000F1D0404270BD0000FF030000CDFBFFFF10
:1008B0004A0009030123090B1B051943094B10B515
:1008C000520D9A4201DA002010BD064B34339A4291
:1008D00003DC9A1A00F0A2F810BD034951188840B1
:1008E00010BD0000FF030000CDFBFFFFC20FD207C9
:1008F000400040080BD0C10D0723DB01C91840029E
:100900000905400A1143C2084007114370470020FF
:100910000146704710B5002904DB0124E40740427A
:100920008C412146002B04DB1C460123DB0752428D
:10093000A341994200D1904210BD0000CB0FDB07CC
:10094000490010B5490802460A4307D00A0D07249A
:100950000903E401090B121B002A01DC002010BD71
:10096000C900440F0C43C100E018D205801800F004
:1009700079F810BD0122D207002800DB101A0029E7
:1009800000DB511A814270470122D207002800DBA8
:10099000101A002900DB511A88427047F0B51FB4C5
:1009A0000646002082B005464024019100901BE0DD
:1009B000019922460F46304600F030F8049A059B14
:1009C000801A994110D310461946224600F016F8B5
:1009D000361A8F410197224601200021009F00F026
:1009E0000DF838184D4100902046641E0028DFDCC9
:1009F000019B00982946324607B0F0BD10B5202A69
:100A000004DB0146203A9140002010BD9140202394
:100A10009C1A0346E3401943904010BD10B5202AAC
:100A200004DB0846203AD040002110BD0B46D340DD
:100A3000D0402024A21A91400843194610BD10B599
:100A4000202A06DBCB170846203A1041C1170B437A
:100A500006E00B461341D0402024A21A91400843DF
:100A6000194610BD002904DA401C490001D1400894
:100A70004000704770B40024050C05D11024000418
:100A800002D1002921D01124050E01D10002083421
:100A9000050F01D10001241D850F01D18000A41C88
:100AA000002801DB4000641C002908D020252E1BF3
:100AB0000D46F540A14000D001212943084301061D
:100AC0001B1B000ADB1D02D5002070BC7047DB0534
:100AD000181880180029F8DA401C4900F5D170BCBC
:100AE00040084000704710B5002B08DA0024401C75
:100AF000614192185B411A4301D14008400010BD8A
:100B0000F0B51FB482B005460C0003D0084604F0CF
:100B100029FC02E004F026FC203002460090214629
:100B20002846FFF76BFF049B059A04460F461843BF
:100B30001143084314D0184610431BD0009840219D
:100B40000A1A18460599FFF769FF05460E46009AEE
:100B500005990498FFF752FF084305D0012004E0EF
:100B60002046394607B0F0BD0020C11705430E43AB
:100B70002C43374300990E986305401A7905E40A1F
:100B800000220C43FD0A0A3002D500200146E9E7A5
:100B90000105101969410C9C0D9D00196941FFF771
:100BA000A2FFDFE770B54B005B0803430BD04B009F
:100BB0005C0D002633466542B341D417AD1AA341FC
:100BC00002DB0020014670BD12053018514170BD96
:100BD0004A0009030123090B1B0519430A4B10B5F1
:100BE000520D9A4202DA0020014610BD064B343302
:100BF0009A4203DC9A1AFFF711FF10BD034BD2187B
:100C0000FFF7FCFE10BD0000FF030000CDFBFFFF5F
:100C1000064C0125064E05E0E36807CC2B430C3C4F
:100C200098471034B442F7D3FFF7A0FAC47A000013
:100C3000E47A0000FEB500231A461B1A8A4103DB42
:100C40000020014603B0F0BD4A000D0301212D0B29
:100C50000905520D0D43D10702D100186D41521EF6
:100C60005110FF31FF310131002704463E4638461E
:100C7000009701910246012100200905FFF7CEFEF1
:100C8000C3197141F818324684468E464A4161467E
:100C90002846611A904104D36046241A954176464D
:100CA0001F46241900986D41401C00903428E1DD56
:100CB000F91930467041091BA84103D20022D243E2
:100CC000134601E00022134601980105381C7141CA
:100CD000FFF709FFB6E7002904D0026880231A4312
:100CE000026003E0026880239A4302607047024674
:100CF0008B0010463030C05880B2704770B50C463B
:100D00009510AE00051DA9599507EE0E1F25B5409B
:100D10002B460D469D4329469507EE0E2546B540C8
:100D20002B460D461D4329469510AD00061D7151F9
:100D300070BD70B5032900D100BF5C1E2404551E90
:100D40002D022C430C430568802635402C4304605B
:100D500070BDCA06D20E02674A0952014267704747
:100D60000168402211430160704701627047002909
:100D700004D0426F01231A43426703E0426F5208D6
:100D80005200426770470000F7B50B46009DED002A
:100D9000154EAA19002000240027002120E000247D
:100DA0000027FF258D401D40002D17D000200FE0AB
:100DB0001D46C54001268E403540002D07D08600D7
:100DC0000F25B5402C438600029DB5402F43401CA3
:100DD0000828EDD31568A5433D431560121D083161
:100DE0000829DCDDFEBD00002020024000222C4945
:100DF000CA644C314A608A60CA604A610A61294A01
:100E0000CA61294A4A62274A8A62274ACA6200227C
:100E10003F314A70002038E0002244214143204BFA
:100E2000803B5A5444214143C9184A6044214143FC
:100E3000C9188A6044214143C918CA60442141430A
:100E4000C9180A6144214143C9184A6144214143F8
:100E5000C9188A61154A44214143C918CA61144A14
:100E600044214143C9180A62002243000C498D31D4
:100E7000CA54430059184A7044214143084B803BEF
:100E8000C91840310A70411CC8B20328C4DB0022D3
:100E9000034980310A7208314A708A707047000035
:100EA000E4000020000048420000A0410000704122
:100EB00000007042FFB581B0002100220024002014
:100EC0000090002504460246014649E000200090BB
:100ED00003E0491C0098401C00900A98814202D20D
:100EE000585C2028F5D00A98814200D13BE00A984E
:100EF000401A022807D3585C0D2804D1481C185CFE
:100F00000A2800D12BE0585C0A2800D127E000987D
:100F1000002803D02B20C04305B0F0BD585C3D280D
:100F200006D1601C0446022802D92B20C043F3E7F7
:100F3000585C7F2804DC585C3C4E305C7F2802D132
:100F40002B20C043E8E7585C384E305C402804DA78
:100F5000002C02D02B20C043DEE7521C00BF491CEE
:100F60000A988142B2D300BF002A04D10026039818
:100F700006600020D0E7D608062046435007400F01
:100F800006277843C01DC0083218121B019800289C
:100F900002D00298904204D2039802602920C043F4
:100FA000BAE70324002002460090019D36E018783D
:100FB0000D2805D018780A2802D01878202800D1EA
:100FC0002AE01878194E305C402801D1012000E059
:100FD0000020241A009880011E78144FBE5DB606CA
:100FE000B60E30430090501C0246042813D1002254
:100FF000002C04D000980002000E28706D1C012CFB
:1010000004D900980004000E28706D1C022C02D92F
:10101000009828706D1C00BF491E5B1C0029C6D1BA
:1010200001982E1A03980660002075E74D7800009D
:10103000FFB585B01D460026002004900390029065
:10104000019000240E98002805D100210798016026
:10105000002009B0F0BD03210E98FFF78DF8074678
:1010600003210E98FFF788F8002901D0012000E045
:1010700000203818049048490498884206D9002175
:10108000C943079801602920C043E2E70498800023
:1010900004900498401C0699814202D305980028C8
:1010A00006D10498401C079908602920C043D0E766
:1010B00003210E98FFF760F84100401804900026C5
:1010C000059C2BE028786D1C039028786D1C0290FD
:1010D00028786D1C0190039880103049085C2070BE
:1010E000641C039801010298001108188006800E04
:1010F0002A49085C2070641C0298810001988011C4
:1011000008188006800E2549085C2070641C019830
:101110008006800E085C2070641CF61C04988642D1
:10112000D0D30E9886422FD228786D1C0390701C65
:101130000E99884202D228786D1C00E000200290AF
:1011400003980006800E1549085C2070641C039803
:1011500001010298001108188006800E0F49085CF2
:101160002070641C701C0E99884207D202980007F8
:10117000800E0A49085C2070641C02E03D2020704B
:10118000641C3D202070641C0598211A079801609A
:101190000020207000BF5CE7FFFFFF3F0D780000DC
:1011A00010B502F039FF024800F004F810BD00004D
:1011B000006007404168490849004160BFF34F8F14
:1011C0007047002904D0026804231A43026003E038
:1011D000026804239A430260704701464868C007CA
:1011E000C00F002801D0012070470020FCE7002933
:1011F00004D0026801231A43026003E00268520827
:10120000520002607047002904D0026802231A438A
:10121000026003E0026802239A4302607047C160E3
:1012200070478160704710B503F0D9FB03F0F2FB03
:1012300003F00EFC03F002FC10BD00000149086041
:10124000704700003800002070B505460E460024A7
:1012500003E0285D00F004F8641CB442F9D370BDCB
:1012600010B5044600BF8021084803F0FDFA0028AD
:10127000F9D02146054803F055FB00BFFF2101319D
:10128000024803F0F1FA0028F8D010BD0010044025
:1012900070B504461F48406B4607760F00F03EF8D5
:1012A0002060330004F075F8081605080B16160EBA
:1012B00012162068606010E0174860600DE0164864
:1012C00060600AE00120C003606006E07D2000024B
:1012D000606002E00020606000BF00BF0D48056A4A
:1012E000052D02D36068400901E06068E840A06015
:1012F0000848806A072109040840050C072D04D11D
:101300000321A068FEF738FF01E0A068E840E06034
:1013100070BD00000080084000127A00F0B5174848
:101320000068FF2701373840040A1448C069C50F18
:10133000124840687F003840460A002E01D1002044
:10134000F0BD002C01D10E4800E00D480346012DF0
:1013500001D11846F4E7094880690F27FF05384096
:10136000C10D002900D110210448806903277F05A1
:101370003840420D18464843D040E1E7008008401D
:1013800000127A007FB50446601180000A494618B1
:1013900000252E2C00D10225E406E40E0321A140F5
:1013A00030680840E04045196846FFF771FF029831
:1013B000E84004B070BD0000388008403FB50E4CD6
:1013C000606AE16A226B0446009DAC4320460C46ED
:1013D000019DAC4321461446029DAC432246002B9E
:1013E00005D0009C2043019C2143029C2243024CD7
:1013F0006062E16222633FBD00800840054A926A54
:10140000072383409A430B4683401A43014B9A6259
:10141000704700000080084010B5024600230020FD
:1014200004E0145CE418E3B2441CE0B28842F8DB48
:10143000184610BD10B5002400220121174800F005
:10144000D5FC01221146154800F0DAFC04E0601CCE
:10145000C4B2012000F034F80121104800F0F3FC80
:10146000002801D0642CF2DB642C01DB012010BDCC
:10147000002404E0601CC4B2012000F021F8012126
:10148000064800F0E0FC002801D1642CF2DB642C5B
:1014900001DB0120EBE70020E9E7000000400B4002
:1014A00010B50446002C04D00121044800F0DDFCF6
:1014B00003E00121014800F097FC10BD00400B4003
:1014C00038B50546134914480068FEF755FE044632
:1014D000002C00D101242846604300900098002889
:1014E00001D1012000900D480099FFF798FE0021DE
:1014F0000A48FFF796FE01210848FFF762FE00BF89
:101500000648FFF76AFE0028FAD00448FFF752FEAB
:1015100038BD000040420F003C0000200070074032
:1015200010B586B000200390049005900121890435
:101530000398884340180390091104988843401881
:101540000490012303A807C8FFF738FF002000908C
:1015500001900290012149040298884340180290AA
:101560000123684607C8FFF729FF01210D48FFF74F
:101570004AFE012211460220FFF706FC002201214B
:10158000094800F033FC01221146074800F038FCFE
:1015900072B600F097F8FFF74DFF044662B620469A
:1015A00006B010BD0070074000400B4010B500248D
:1015B00004E0601CC4B20120FFF782FF0121114842
:1015C00000F041FC002801D0642CF2DB002404E090
:1015D000601CC4B20120FFF773FF0121094800F02D
:1015E00032FC002801D1642CF2DB2820FFF768FFD1
:1015F0000121044800F027FC002801D0012010BD83
:101600000020FCE700400B4070B50024002506E0F8
:101610006006040EFFF7CAFF0443681CC5B2082D1C
:10162000F6DB204670BDFFB585B005460E46174671
:10163000012002900020019072B600F043F8FFF7FD
:10164000F9FE02900298002809D1002405E0FFF776
:10165000DBFF03A90855601CC4B2052CF7DB62B69A
:10166000029800281ED169460A7B497B52186946B8
:10167000897B52186946C97B5118C8B26946097CF2
:1016800081420ED16946097B397069464A7B0899C7
:101690000A706946897B29706946C97B31700121CE
:1016A000019100BF0198002802D0002009B0F0BDD0
:1016B00000203870002108980170002028703070D8
:1016C0000120F3E710B5012211460A4800F08EFB15
:1016D00000220121074800F093FB0020FFF7E0FE05
:1016E0000548FFF7EDFE0120FFF7DAFE1E20FFF7A9
:1016F000E7FE10BD00400B40204E000010B502F088
:10170000BDFB0248FFF79AFD10BD0000251A00003E
:101710007CB506460C4615460194012301AA2021FA
:101720003046009502F04AFB7CBD7CB506460C466F
:1017300015460194012301AA21213046009502F0AB
:101740003DFB7CBDF7B598B005461998072807DB27
:101750002878AA2804D11998401E285C552806D05C
:101760006AA006F03BF80020C0431BB0F0BD6878CB
:1017700017901998011F1798814208D01998021FD5
:101780007048179906F02AF80020C043EDE7681C5E
:101790001799FFF741FE16901998801E295C159144
:1017A00015991698814207D06748169A159906F040
:1017B00015F80020C043D8E7AE78E87814902F1DC4
:1017C0001798801EC0B21390012E01DB032E06DD98
:1017D00031465EA006F002F80020C043C5E7701E47
:1017E000442148431A9940180446083414980128A3
:1017F0007BD113980A2807D00A215D48139A05F077
:10180000EDFF0020C043B0E71297129F79783A7835
:101810000906091411430846FEF7D8FF55491190EF
:10182000FEF703FE2060129FF978BA78090211438F
:101830000846FEF7D6FF4F491190FEF7F6FD6060AF
:10184000129F79793A79090211430846FEF7C9FFD8
:1018500048491190FEF7E9FDA060129FF979BA7925
:10186000090211430846FEF7BCFF42491190FEF7FA
:10187000DCFDE060129F797A3A7A0902114308464A
:10188000FEF7AFFF3B491190FEF7CFFD20613146D7
:1018900039A005F0A3FF2069FFF728F811911090F7
:1018A000E068FFF723F80F910E90A068FFF71EF88D
:1018B0000D910C906068FFF719F80B910A90206861
:1018C000FFF714F809910890119910980791069064
:1018D0000F990E98059104900D990C980391029020
:1018E0000B990A980191009000E006E031A0099B55
:1018F000089A05F073FF304637E732463AA014994C
:1019000005F06CFF0020C0432FE70000444C32304C
:10191000204552523A204261736963206672616DBC
:101920006520666F726D6174206572726F72202817
:10193000534F462F454F462F4D696E4C656E292EED
:101940000D0A0000A8790000387A0000444C3230BB
:10195000204552523A20496E76616C696420536C7E
:101960006176652049443A2025642E0D0A00000066
:10197000EC79000000002041444C323020494E46B2
:101980004F3A205061727365642073656E736F7295
:1019900020646174612066726F6D20536C6176659E
:1019A000202564207375636365737366756C6C7949
:1019B0002E0D0A00202054656D703A252E316620C8
:1019C00048756D693A252E316620434F3A252E31F0
:1019D0006620536D6F673A252E3166204151493A92
:1019E000252E31660D0A0000444C323020574152FA
:1019F0004E3A20556E6B6E6F776E2066756E63740F
:101A0000696F6E20636F646520307825303258200E
:101A100066726F6D20536C6176652025642E0D0A09
:101A20000000000070B504462D480078002802D060
:101A3000012851D10FE0AA2C0CD102F01FFA29483D
:101A400001880088401C274A108027484454012000
:101A50002349087040E023480088802805DB23A044
:101A600005F0BCFE02F00AFA70BD1E48018800882D
:101A7000401C1C4A10801C48445410460088022810
:101A800001D12948047028480078051D15480088B0
:101A9000042820DB13480088A8421CD11148008884
:101AA000401E1149085C55280BD10E4801881FA023
:101AB00005F094FE2B4A0B4801880B48FFF742FEC5
:101AC00007E008480088401E074A115C26A005F080
:101AD00085FE02F0D3F900BF00BF00BFC4E70000DD
:101AE000080000200A0000208C010020444C323005
:101AF000204552523A20525820627566666572201F
:101B00006F766572666C6F772E205265736574749C
:101B1000696E67207374617465206D616368696EB6
:101B2000652E0D0A000000000C000020444C3230ED
:101B300020494E464F3A2046756C6C206672616DA6
:101B40006520726563656976656420282564206276
:101B500079746573292C2070617273696E672E2EFB
:101B60002E0D0A0064000020444C323020455252B1
:101B70003A20496E76616C696420454F462E2045B7
:101B80007870656374656420307835352C20676F14
:101B900074203078253032582E0D0A0010B50121FE
:101BA00089020348FEF731FB00200249088010BD7E
:101BB000760500204C00002070B50546002400BFCB
:101BC00000F0F8F8002819D111A11348FEF734FBF2
:101BD0000446002C03D111A005F000FE0EE03A21CE
:101BE0002046FEF74AFB0446002C05D0641C10A0DA
:101BF00005F0F4FD204670BD0020FCE7052004F050
:101C0000F5F92846691E8DB20028D9D100BFF2E748
:101C10004950442C00000000760500202249504421
:101C200022206E6F7420666F756E640D0A000000CE
:101C30002249504422206F6B0D0A000010B5FFF7B7
:101C4000ADFF03E0FF20F53004F0D0F917A118A094
:101C500000F064F80028F5D103E0FF20F53004F02F
:101C6000C5F912A114A000F059F80028F5D103E03D
:101C7000FF20F53004F0BAF90CA113A000F04EF8E3
:101C80000028F5D103E0FF20F53004F0AFF912A1F0
:101C900013A000F043F80028F5D119A11E4802F066
:101CA00052FEFF20F53004F0A1F910BD4F4B0000AB
:101CB00041540D0A0000000041542B43574D4F443E
:101CC000453D310D0A00000041542B435744484321
:101CD000503D312C310D0A00474F5420495000002F
:101CE00041542B43574A41503D22496F542D3630C1
:101CF00035222C224136303541363035220D0A004E
:101D0000352E204553503832363620496E697420BE
:101D10004F4B0D0A0000000000000440F8B50446D7
:101D20000D46C8262046FEF7B2FA87B23A4621464B
:101D3000F00602F02FFE10E000F03CF8002809D178
:101D400029460948FEF778FA002803D0FFF726FF56
:101D50000020F8BD0A2004F049F93046711ECEB2C9
:101D60000028E9D10120F4E77605002030B589B0DC
:101D700004460D46FFF712FF2A4609A101A803F009
:101D8000CBFA0BA101A8FFF7C9FF002805D12A460D
:101D900021460120800702F0FDFD09B030BD0000A2
:101DA00041542B43495053454E443D25640D0A0090
:101DB0003E0000000A480088002801D10120704739
:101DC0000748008807490988884203D10020044950
:101DD0000880F4E702480088024908800120EEE705
:101DE0004C0000204E00002081627047002A03D082
:101DF00003680B43036002E003688B430360704792
:101E0000002A03D043680B43436002E043688B43DE
:101E100043607047002A06D183680B438360C36820
:101E20008B43C3600EE0012A06D1C3680B43C36035
:101E300083688B43836005E083688B438360C3685A
:101E40008B43C36070470246D3690B40002B01D01F
:101E5000012000E0002070470246136A0B40002B6F
:101E600001D0012000E00020704741627047002A45
:101E700001D0416200E081627047000010B5044665
:101E80000848007800280BD0002C04D00322064913
:101E90002046FEF7A1F9002002490870012010BD7C
:101EA0000020FCE7140000201500002010B5C82019
:101EB00004F09CF800F098F8C82004F097F800208F
:101EC00003490870034908700349087010BD0000F9
:101ED0000D00002013000020140000200E49097896
:101EE0000D4A527889180C4A927889180A4AD27891
:101EF0008918C8B20849097981420CD10649497844
:101F0000064A11700449897851700349C978917063
:101F10000121034A117070470E00002015000020B7
:101F20001400002010B5044613480078002802D0A1
:101F300001281ED109E0A52C06D11048047001200B
:101F40000F4908700C49087013E00D4801780078BB
:101F5000401C0B4A1070094844541046007805286C
:101F600006DBFFF7BBFF0020034908700449087037
:101F700000BF00BF10BD00000D0000200E000020BB
:101F80001300002010B504462146054802F0CAFCA3
:101F900000BF8021024802F067FC0028F9D010BD84
:101FA000000004400FB410B5A2B025A80190802114
:101FB00002A8019B249A03F0C3F904460020019073
:101FC000002C01DB802C06D30020C04322B010BCC3
:101FD00008BC04B0184772B602A800F010F800F070
:101FE00003F862B60020F1E710B5FF20FFF7CAFF43
:101FF000FF20FFF7C7FFFF20FFF7C4FF10BD10B59C
:10200000044603E02078641CFFF7BCFF207800281A
:10201000F8D110BD70B504460D46164633462A4623
:10202000214602A0FFF7BEFF70BD000025732E25DC
:10203000733D256C6400000000BF02480068002862
:10204000FBD070470000002010B502F093FB02F0B7
:102050000FFB02F0F9F8FFF7E6F8FFF74FFB00F08F
:102060004FF900F0EFF9FFF721FF00F0A5F8FFF7B7
:1020700057FA03F0A1FE02A1064802F064FC10BD6D
:1020800020486172647761726520696E6974204FBF
:102090004B0D0A0000000440FEB53B49486902F0C0
:1020A00035FD810044183849886802F04FFDC000B2
:1020B000241835494C39C86C02F056FDC100081A85
:1020C00024183149486802F00BFD4000201886B200
:1020D000304602F0DFFC054600243DE04421614328
:1020E000294ACC3A8918086902F0E4FC0A2107461B
:1020F0004F4344216143244ACC3A8918486902F08D
:1021000025FDC0003F18442161431F4ACC3A89187D
:10211000886902F03FFD80003F18442161431A4A5C
:10212000CC3A8918886802F01FFDC100081A3F18D0
:1021300044216143144ACC3A8918C86802F0D0FCA3
:1021400040003818610001AA50526100505A02F054
:10215000A1FC69460855641C032CBFDB002010E07D
:1021600000216A46125CAA4201DA294601E06A4669
:10217000115C44224243044BCC3BD21840321170D4
:10218000401C0328ECDBFEBD3001002010B501210E
:1021900089030848FFF760FE012805D1002281036A
:1021A0000448FFF764FE04E0012291030148FFF7B1
:1021B0005EFE10BD00400B400EB500200090019067
:1021C000029001218904009888434018009001235F
:1021D000684607C8FFF7F2F8012203218903054882
:1021E000FFF704FE0122032189030248FFF73FFEA7
:1021F0000EBD000000400B4010B501210448FEF761
:10220000B6FD00210248FEF772FD0446204610BDCF
:1022100000000140F0B58DB0002500270EE0FFF76B
:10222000EBFF0890FEF7DDFA29460990FEF767F804
:102230000546052003F0DAFE781CC7B20A2FEEDB54
:1022400028492846FEF7F1F8054627492846FEF7B3
:10225000AFF807468B21C905FEF7E7F8044620468C
:10226000FEF744FB0022214B03910290FEF7CEF9CA
:102270000791069021461C48FEF792F80746FEF7A4
:1022800035FB05910490079B069AFEF727FA099102
:102290000890FEF753FB064615480B903046FEF7B4
:1022A00025FB059104900B98FEF720FB114A124B79
:1022B00001910090FEF7AAF903910290059B049A00
:1022C000FEF70CFA072252070C4B0791069004F018
:1022D0002DFC09910890FEF731FB0A900A980DB089
:1022E000F0BD0000000020410000A0400000E03FE1
:1022F000E17AD440A089B0E1E9152740F0F4E43F49
:102300000EB5002000900190029001210904009870
:1023100088434018009009020298884340180290B0
:102320008912019888434018019010210098884331
:10233000103000900123684607C8FFF73FF80022DD
:1023400002211648FFF752FD012202211348FFF730
:1023500057FD1348FEF704FD02211020FFF74EF849
:10236000022211460020FEF70FFD002201210C4839
:10237000FEF7C4FC0123022211460948FEF7D9FCEE
:1023800001210748FEF7E5FC10210548FEF7EDFCAA
:1023900001210348FEF79FFC0EBD000000000B402A
:1023A0000000014010B501210448FEF7E0FC0121C6
:1023B0000248FEF79CFC0446204610BD0000014088
:1023C000F0B589B00024002508E0FFF7EBFF001905
:1023D00084B2052003F00AFE681CC5B20A2DF4DBA6
:1023E0000A212046FDF7DEFE84B22046FEF714FAED
:1023F000054600220E4BFEF771F90E4A0E4B019175
:102400000090FEF703F900220C4B03910290FEF7B7
:10241000FDF800220A4B05910490FEF745F807915C
:102420000690FEF745FA87B2384609B0F0BD0000C5
:102430000000B0406666666666660A4000406A4014
:10244000000024400EB50020009001900290012170
:1024500009040098884340180090090202988843B4
:102460004018029089120198884340180190102169
:1024700000988843103000900123684607C8FEF793
:102480009DFF002280211648FFF7B0FC0122802129
:102490001348FFF7B5FC1348FEF762FC0221102039
:1024A000FEF7ACFF022280210020FEF76DFC012226
:1024B00007210C48FEF722FC0123022200210948D3
:1024C000FEF737FC01210748FEF743FC10210548C1
:1024D000FEF74BFC01210348FEF7FDFB0EBD00009B
:1024E00000000B400000014010B50446207B01288D
:1024F00002D1206803F0BCFD002020606060A06075
:10250000207310BD10B50246002301230EE05006D3
:10251000400E0870D209002A05D008788024204394
:102520000870491C01E0184610BD5B1C042BEEDD51
:102530000020C043F8E770B504460E460025206829
:10254000002814D101202073304603F037FF2060AB
:10255000206800281CD000206060A66003E00020F6
:10256000216848556D1CA068A842F8D810E00220E8
:10257000207303E00020216848556D1CA068A84224
:10258000F8D800206060A068B04201D2002020602E
:1025900070BD0000FFB583B0119C002500200290A3
:1025A0000F2701900598FDF772FE00B20090059884
:1025B000002802D1012007B0F0BD0098801C381817
:1025C00087B20C98002801D0022005430E980028FD
:1025D0000FD0042005430E98FDF759FEC0B20290BB
:1025E0000F98FDF754FE01460298001D0818C01907
:1025F00087B20D98002804D0012804D0022808D101
:1026000004E000BF07E00C20054304E0142005436C
:1026100001E00220CFE700BF1098002801D024205D
:1026200005430398002802D00498002801D1032014
:10263000C1E7C02005430398FDF729FE064604982C
:10264000FDF725FE3018001DC01987B23946204617
:10265000FFF771FF2068002801D10420ABE739465D
:102660002068FDF7D2FD10216268501C6060206870
:10267000815463682268D118781FFFF743FF00B2C6
:1026800001900198002804DA2046FFF72DFF05206D
:1026900091E7616801980818606000216268501C29
:1026A00060602068815404216268501C606020686A
:1026B00081544D216268501C606020688154512112
:1026C0006268501C60602068815454216268501C0C
:1026D0006060206881546268501C6060206881548A
:1026E00004216268501C6060206881546168481C45
:1026F000606020684554FF210902069808400112D5
:102700006268501C6060206881540698C1B262689B
:10271000501C606020688154FF2109020098084025
:1027200001126268501C6060206881540098C1B238
:102730006268501C60602068815462682168881853
:10274000009A0599FDF7B8FD616800980818606067
:102750000420284000283ED000260F98002801D1F0
:102760003FA00F900E98FDF792FD86B2FF20000269
:10277000304001126268501C6060206881546268B9
:10278000501C606020688654626821688818324650
:102790000E99FDF791FD6068801960600F98FDF754
:1027A00076FD86B2FF200002304001126268501CA4
:1027B0006060206881546268501C606020688654A4
:1027C00062682168881832460F99FDF775FD6068C8
:1027D0008019606000BF8020284000281CD003982A
:1027E000FDF755FD86B2FF200002304001126268FD
:1027F000501C6060206881546268501C60602068D2
:10280000865462682168881832460399FDF754FDA2
:1028100060688019606000BF4020284000281CD0FC
:102820000498FDF734FD86B2FF200002304001120B
:102830006268501C6060206881546268501C60604F
:102840002068865462682168881832460499FDF72A
:1028500033FD60688019606000BF0020ABE60000B7
:1028600000000000FFB585B01746119C002500262A
:1028700000200490039002900598002802D10120C6
:1028800009B0F0BD00260AE00698805D232803D039
:102890000698805D2B2801D10220F1E7761C06986E
:1028A000805D0028F0D130210298084302900F98F3
:1028B000002803D00121029808430290089830189C
:1028C000851C0E98002804D0012805D002280FD1BD
:1028D00008E0029802900DE002210298084302905D
:1028E000AD1C07E00421029808430290AD1C01E0F2
:1028F0000320C5E700BF002F35D03878022824D147
:102900000020019000BF0198411C0191385C7D2896
:10291000F9D10198C01E01900198C01D049004993E
:102920000898401A0190E81C019A811A2046FFF786
:1029300002FE2068002801D10420A1E7EA1C019BC7
:10294000D11A2068FDF761FC1AE0691D2046FFF7E7
:10295000F2FD2068002801D1042091E7691D20685C
:10296000FDF753FC0CE0691D2046FFF7E4FD2068ED
:10297000002801D1042083E7691D2068FDF745FC8C
:1029800002996268501C6060206881546268206807
:1029900081182846FFF7B6FD03900398002804DA53
:1029A0002046FFF7A1FD05206AE761680398081833
:1029B0006060FF2000023040010A6268501C6060C5
:1029C000206881546268501C606020688654626888
:1029D0002168881832460699FDF76EFC60688019F8
:1029E00060600E98002810D0FF2109020598084069
:1029F00001126268501C6060206881540598C1B261
:102A00006268501C606020688154002F19D03878AB
:102A100002280BD16268216888183946049AFDF7AC
:102A2000DBFB61680498081860600AE0626821684E
:102A300088183946089AFDF7CFFB6168089808188E
:102A4000606000201CE70000F0B591B004460D4620
:102A50001646169F23460CA2302105A8009502F0C9
:102A600045FC01200021009033460A46039701915E
:102A7000029005A90A20FFF7F5FE002802D00120E8
:102A800011B0F0BD0020FBE7247379732F25732F5D
:102A900025732F7468696E672F70726F706572741A
:102AA000792F706F73740000FFB583B017460C9CCC
:102AB000002600200290019000250398002802D1F2
:102AC000012007B0F0BD0CE0A8003858002801D163
:102AD0000220F6E7A9007858FDF7D9FB8619681C93
:102AE000C5B206988542EFDB069841004018801C6D
:102AF000811902910299491D2046FFF71CFD2068AB
:102B0000002801D10320DCE782216268501C60604C
:102B1000206881546268206881180298FFF7F2FCEF
:102B200000B201900198002804DA2046FFF7DCFC8F
:102B30000420C6E76168019808186060FF21090257
:102B40000398084001126268501C6060206881543C
:102B50000398C1B26268501C6060206881540025EF
:102B600027E0A9007858FDF792FB0646FF200002F7
:102B70003040010A6268501C6060206881546268BD
:102B8000501C606020688654626820688318A80022
:102B9000395832461846FDF78FFB6068801960602F
:102BA0000498C1B26268501C606020688154681C3F
:102BB000C5B206988542D4DB002082E7F0B5044612
:102BC0000D462646012300201060002116E0775CA8
:102BD0007F067F0E5F431068C0191060705C80270D
:102BE0003840002801D1481CF0BDDB010120400520
:102BF000834202D30120C043F6E7491CA942E6DB29
:102C00000020C043F0E701464878022801D00120A7
:102C100070478878002802D08878012801D1C878C8
:102C2000F6E7FF20F4E70000FFB585B00D46144637
:102C30001E46059800780007000F049000200390BE
:102C40000821049808400290062104980840411089
:102C50000F98017003AA04210598401CFFF7AEFFEE
:102C600005994018471C0398022804D30498C0070C
:102C7000C00F002802D0FF2009B0F0BD3878000254
:102C80007978084320802088801C0399884201D9E4
:102C9000FF20F1E759A1B81CFDF7CEFA002801D0BA
:102CA0000F20E9E70F980078002804D0012840D0D1
:102CB00002287DD13EE00298002801D0FF20DBE70A
:102CC0002188481C03F07AFB28602868002801D17D
:102CD000FF20D1E72288511C2868FDF796FA228848
:102CE000B91C2868FDF778FA0398801E2188401ADD
:102CF00081B20E9801800E990988481C03F05EFB92
:102D000030603068002804D1286803F0B1F9FF2052
:102D1000B2E70E9A1288511C3068FDF776FA0E98C9
:102D200002882088BB1CC11830680190FDF754FA56
:102D300053E000BF2088801C0399884201D9FF20FE
:102D40009AE72088801C385C01022088C01C385C0F
:102D50000143109801801098002801D1FF208BE7D3
:102D60002188481C03F02AFB28602868002801D12C
:102D7000FF2081E72288511C2868FDF746FA228847
:102D8000B91C2868FDF728FA0398001F2188401A0B
:102D900081B20E9801800E990988481C03F00EFB41
:102DA00030603068002806D1286803F061F900E03F
:102DB00011E0FF2060E70E9A1288511C3068FDF781
:102DC00024FA0E98028820883B1DC11830680190B3
:102DD000FDF702FA01E0FF204EE700BF2B21284655
:102DE000FDF74BFA002805D123212846FDF745FAC7
:102DF000002801D0FF203FE700203DE724637265F3
:102E00007100000001464878022801D00120704777
:102E10008878002804D1C8780A2801D10020F6E774
:102E20000120F4E7F8B50446FF2720780511012DAD
:102E300001DB0E2D01DD3846F8BD032D26D1002023
:102E400000906A460421601CFFF7B8FE0019461C7A
:102E50000098022804D32078C007C00F002801D0B2
:102E6000FF20E9E73078000271780843801C009960
:102E7000884201D9FF20DFE706A1B01CFDF7DCF98D
:102E8000002801D00F2700E0032700E02F46384636
:102E9000D2E7000024637265710000000146FF2044
:102EA0008A78002A15D1CA78142A12D10A79002A00
:102EB00006D0012A05D0022A04D0802A06D103E0D8
:102EC00000BF00BF002003E0012001E0022000BF9E
:102ED00000BF704770470000C206D20E012191402A
:102EE000014A11607047000000E100E0F0B58BB0CE
:102EF0000546002600242846FDF7C9F9C7B2002D73
:102F000001D01C2F02DA01200BB0F0BD06E0A85D55
:102F100001A988550020A855701CC6B2BE42F6DB38
:102F2000002001A988550026002455E001A8805DF5
:102F30002B2810D008DC202814D023282ED02528B8
:102F400025D026283FD130E02F2812D03D2833D07D
:102F50003F2838D114E0281922A1FDF761F9E01CBF
:102F6000C4B236E0281920A1FDF75AF9E01CC4B21A
:102F70002FE028191DA1FDF753F9E01CC4B228E089
:102F800028191BA1FDF74CF9E01CC4B221E0281957
:102F900018A1FDF745F9E01CC4B21AE0281916A1E2
:102FA000FDF73EF9E01CC4B213E0281913A1FDF7A8
:102FB00037F9E01CC4B20CE0281911A1FDF730F973
:102FC000E01CC4B205E001A8805D2855601CC4B2B5
:102FD00000BF00BF701CC6B2BE42A7DB0020285550
:102FE00000BF91E7253242002532300025324600ED
:102FF0002533460025323500253233002532360090
:1030000025334400F0B5C9B005460C4616461F46A8
:1030100000204890002D0CD0002C0AD04148864258
:1030200007D3002F05D04F98002802D05098782859
:1030300002DA012049B0F0BD402118A8FDF7E5F8FB
:103040003846FDF724F905903B4648AA40210090F8
:1030500018A8FDF72FFF482106A8FDF7D6F85198CC
:1030600000280AD030A0334631A2482102950194AD
:10307000009006A802F03AF90BE02BA14E983346D7
:1030800031A20395019400910290482106A802F014
:103090002DF9402128A8FDF7B8F806A8FDF7F7F8A4
:1030A000059018A8FDF7F3F8049028A8009006AA48
:1030B00018A8059B049903F02BF8002048904021A4
:1030C00038A8FDF7A2F828A8FDF7E1F8059028AB8D
:1030D00048AA4021009038A8FDF7AAFF38A8FFF7BA
:1030E00005FF519800280CD038A80FA12B461EA22E
:1030F000019600940291039050994F9802F0F6F8CF
:103100000DE038A908A24E982B460296009403922F
:1031100004910190224A50994F9802F0E7F800205C
:1031200088E700009554415D73686131000000003C
:1031300025640A25730A70726F64756374732F2592
:10314000730A25730000000025640A25730A707253
:103150006F64756374732F25732F64657669636577
:10316000732F25730A25730076657273696F6E3D40
:103170002573267265733D70726F64756374732571
:1031800025324625732665743D2564266D65746871
:103190006F643D2573267369676E3D2573000000DB
:1031A0007C7A000070B588B005460C46002004907B
:1031B00005900690079023462A4610A1174801F073
:1031C000C2FB2046FDF763F8064604A80121002251
:1031D00000923346019202910390224629460A202A
:1031E000FFF740FB002807D1059A91B20498FEF73B
:1031F000BDFD04A8FFF778F908B070BD5075626C8A
:1032000069736820546F7069633A2025732C204DD0
:1032100073673A2025730D0A000000000000044087
:1032200000B595B00020119012901390149003A84F
:1032300002900EA00FA312A23821009003A802F062
:1032400055F811A8012302AA002100901420FFF7CD
:103250002BFC002807D1129A91B21198FEF786FD37
:1032600011A8FFF741F915B000BD00006169725F58
:1032700030310000734D46436935337748480000CC
:10328000247379732F25732F25732F7468696E67E4
:103290002F70726F70657274792F736574000000FF
:1032A00030B5B3B000202F9030903190329001258E
:1032B000A02107AA33A3009301920291039033A3A4
:1032C0003E4A3FA141A0FFF79DFE2FA80021029199
:1032D000039104910590084601217D23DB0029A27A
:1032E0000091019007A936A0FFF754F9002842D1B8
:1032F000309A91B22F98FEF739FDFA20FEF75CFC68
:103300000446002C33D02046FFF78CFD02282ED136
:103310002046FFF778FC030002F03BF806040A0F92
:1033200014191E232CA1324801F00DFB00251DE0CD
:1033300030A12F4801F007FB18E037A12C4801F01D
:1033400002FB13E03FA12A4801F0FDFA0EE047A17D
:10335000274801F0F8FA09E050A1254801F0F3FAF6
:1033600004E05CA1224801F0EEFA00BF00BF2FA8E4
:10337000FFF7BAF803E060A11D4801F0E4FA28461F
:1033800033B030BD6169725F3031000062314E4E42
:103390005346413464326431515774455655786F01
:1033A00051566C77565656575A584E436346567484
:1033B0004D314A4D5931453D000000007B07EE6913
:1033C000734D464369353377484800003230313811
:1033D0002D31302D33310000546970733A09E8BF44
:1033E0009EE68EA5E68890E58A9F0D0A0000000003
:1033F000000004405741524E3A09E8BF9EE68EA5B0
:10340000E5A4B1E8B4A5EFBC9AE58D8FE8AEAEE9CE
:103410009499E8AFAF0D0A005741524E3A09E8BF00
:103420009EE68EA5E5A4B1E8B4A5EFBC9AE99D9E01
:10343000E6B395E79A84636C69656E7469640D0AF6
:10344000000000005741524E3A09E8BF9EE68EA5A3
:10345000E5A4B1E8B4A5EFBC9AE69C8DE58AA1E5A8
:1034600099A8E5A4B1E8B4A50D0A00005741524E51
:103470003A09E8BF9EE68EA5E5A4B1E8B4A5EFBC85
:103480009AE794A8E688B7E5908DE68896E5AF863A
:10349000E7A081E99499E8AFAF0D0A005741524E79
:1034A0003A09E8BF9EE68EA5E5A4B1E8B4A5EFBC55
:1034B0009AE99D9EE6B395E993BEE68EA528E6AF10
:1034C00094E5A682746F6B656EE99D9EE6B39529BF
:1034D0000D0A00004552523A09E8BF9EE68EA5E566
:1034E000A4B1E8B4A5EFBC9AE69CAAE79FA5E9942D
:1034F00099E8AFAF0D0A00005741524E3A094D51BD
:1035000054545F5061636B6574436F6E6E65637492
:10351000204661696C65640D0A000000F1B590B049
:10352000192080010F90109E05460024D3480068A2
:10353000401CD24908600846D1A22946036830469B
:1035400001F0D4FE0446002C01DBAC4202D3002083
:1035500011B0F0BD36192D1BD3A00E90D8A00D9040
:10356000DC49C86CFDF7C2F90A900B91DAA301910E
:103570000090294630460E9A01F0B8FE0446002C11
:1035800001DBAC4201D30020E2E736192D1BD14903
:103590004C314868FDF7AAF90A900B91D3A3019129
:1035A0000090294630460E9A01F0A0FE0446002CF9
:1035B00001DBAC4201D30020CAE736192D1BC549F7
:1035C0004C318868FDF792F90A900B91CBA30191D9
:1035D0000090294630460E9A01F088FE0446002CE1
:1035E00001DBAC4201D30020B2E736192D1BB949EB
:1035F0004C31C868FDF77AF90A900B91C3A3019189
:103600000090294630460E9A01F070FE0446002CC8
:1036100001DBAC4201D300209AE736192D1BAD49DE
:103620004C314869FDF762F90A900B91BBA30191F7
:103630000090294630460E9A01F058FE0446002CB0
:1036400001DBAC4201D3002082E736192D1BA149D2
:103650004C310869FDF74AF90A900B91B3A3019127
:103660000090294630460E9A01F040FE0446002C98
:1036700001DBAC4201D300206AE736192D1B9548C7
:103680008030C07A002818D192488B304078ADA3A2
:103690000090294630460D9A01F028FE04468D48D8
:1036A0008B304178ABA004F099F8002C01DBAC42E0
:1036B00001D300204CE736192D1B0027BCE07A1CF3
:1036C000AAA104A801F028FE44217943814A803A46
:1036D00089188868FDF70AF90290039104AB0191FB
:1036E0000090294630460E9A01F000FE0446002C58
:1036F00001DBAC4201D300202AE736192D1B7A1CCE
:103700009FA104A801F008FE44217943714A803A40
:103710008918C868FDF7EAF80290039104AB01919B
:103720000090294630460E9A01F0E0FD0446002C38
:1037300001DBAC4201D300200AE736192D1B7A1CAD
:1037400094A104A801F0E8FD44217943614A803A3C
:1037500089180869FDF7CAF80290039104AB01913A
:103760000090294630460E9A01F0C0FD0446002C18
:1037700001DBAC4201D30020EAE636192D1B7A1C8E
:1037800088A104A801F0C8FD44217943514A803A38
:1037900089184869FDF7AAF80290039104AB0191DA
:1037A0000090294630460E9A01F0A0FD0446002CF8
:1037B00001DBAC4201D30020CAE636192D1B7A1C6E
:1037C0007DA104A801F0A8FD44217943414A803A33
:1037D00089188869FDF78AF80290039104AB01917A
:1037E0000090294630460E9A01F080FD0446002CD8
:1037F00001DBAC4201D30020AAE636192D1B7A1C4E
:1038000071A104A801F088FD442078433149803932
:1038100040184030007804AB0090294630460D9A9D
:1038200001F064FD0446002C01DBAC4201D3002012
:103830008EE636192D1B7F1C032F00DA3FE7109808
:10384000301A0C900C98002807D00C98401E109944
:10385000085C2C2801D1761E6D1C60A229463046DA
:1038600001F044FD0446002C01DBAC4201D30020F2
:103870006EE61098301A001980B269E650000020F8
:103880007B226964223A22256C75222C227665728D
:1038900073696F6E223A22312E30222C22706172AF
:1038A000616D73223A7B0000222573223A7B2276D7
:1038B000616C7565223A252E31667D2C0000000072
:1038C000222573223A7B2276616C7565223A256443
:1038D0007D2C0000E4000020686F73745F74656DD8
:1038E000706572617475726500000000686F7374B2
:1038F0005F68756D6964697479000000686F73743E
:103900005F736D6F675F70706D000000686F737438
:103910005F6761735F70706D00000000686F7374A3
:103920005F706D32355F76616C756500686F7374BA
:103930005F666F726D616C6465687964655F7070F5
:1039400062000000676C6F62616C5F66616E5F6D44
:103950006F646500676C6F62616C5F66616E5F6D5E
:103960006F6465203D2025640D0A0000736C61764C
:103970006525645F74656D7065726174757265004C
:10398000736C61766525645F68756D6964697479C7
:1039900000000000736C61766525645F636F5F7083
:1039A000706D0000736C61766525645F736D6F6781
:1039B0005F70706D00000000736C61766525645F58
:1039C0006171695F70706D00736C61766525645F0D
:1039D00066616E5F73706565640000007D7D000048
:1039E000F1B5DEB000205D905C9000215B915A91B2
:1039F0005991589057905E98FFF714FA589058983C
:103A0000032804D004287CD009287BD19DE063489A
:103A100059A95AAA5DAB0092019102905BAA5CA9D8
:103A20005E98FFF701F95790579800286BD15CA07A
:103A30005D9A5C9903F0D2FE5D9802F071FA56909F
:103A40005698002879D05DA1569802F049FA559011
:103A50005598002832D05BA1559802F041FA0646ED
:103A6000002E09D001215B48C172317D0B304170BD
:103A7000417859A003F0B2FE00241DE0621C5CA155
:103A80004DA801F049FC4DA9559802F029FA0746C6
:103A9000002F10D0397D442060435A4A80184030AE
:103AA00001704420604311464018403002784DA90F
:103AB00055A003F093FE641C032CDFDB55A1569840
:103AC00002F00EFA4C9054A15C98FCF7B5FB054649
:103AD0004C9800282DD04C98C068042829D1002D7E
:103AE00027D05C98FCF7D3FB5C99691A13318842A4
:103AF0001FD14C9800694B905C982A1A014619A86E
:103B000002E01BE02EE018E0FCF7AAFB00205C9925
:103B1000691A19AA505445A119A8FCF781FB4AA1BA
:103B200068464B9A01F0F8FB694619A8FFF73AFB83
:103B300000BF569802F0A0F900BF17E05E98FFF7AB
:103B400061F9002800D111E000BF5E98FFF7A6F9E7
:103B5000002803D147A003F041FE02E04CA003F08F
:103B60003DFE03E00020C043579000BF00BFFEF7BA
:103B700015F85798401C002801D15FB0F0BD589847
:103B80000F2802D05898032805D15C9802F070FAEB
:103B90005D9802F06DFA00BFEFE7000054000020CE
:103BA000746F7069633A2025732C207061796C6F93
:103BB00061643A2025730D0A000000007061726193
:103BC0006D730000676C6F62616C5F66616E5F6D44
:103BD0006F64650064010020676C6F62616C5F66F2
:103BE000616E5F6D6F6465203D2025640D0A0000E5
:103BF000736C61766525645F66616E5F7370656581
:103C000064000000640000202573203D2025640D21
:103C10000A000000696400002F7468696E672F70E5
:103C2000726F70657274792F736574002F74686990
:103C30006E672F70726F70657274792F7365745F21
:103C40007265706C790000007B226964223A22253B
:103C500073222C2022636F6465223A3230302C208C
:103C6000226D7367223A2273756363657373227DD5
:103C700000000000546970733A094D5154542053A8
:103C80007562736372696265204F4B0D0A00000014
:103C9000546970733A094D515454205375627363DB
:103CA00072696265204572720D0A000070B5274B7B
:103CB0009D44002126486844016341638163C163D8
:103CC000002500242249283102A8FCF79EFA02A808
:103CD000FFF724FC0646002E30DD35B21D4868444F
:103CE00000232A461CA100901DA0FEF7ADFE00286F
:103CF0001FD10AE002A9095D15486844426B531CB4
:103D00004363006B8154601C04B2AC42F2DB104A86
:103D10006A44526B91B20E4A6A44106BFEF726F861
:103D200012A1154800F00FFE0A486844FEF7DCFBBC
:103D300008E012A1104800F006FE03E017A10E48AB
:103D400000F001FE29239B019D4470BDC0F5FFFFDB
:103D5000000A0000300A00006169725F3031000023
:103D6000734D4643693533774848000053656E64A8
:103D7000204F4B0D0A000000000004405741524EF6
:103D80003A202020204544505F4E65774275666694
:103D90006572204661696C65640D0A004552524F98
:103DA000523A204F6E654E65745F46696C6C427581
:103DB00066206661696C6564210D0A00FFB583B0F9
:103DC00006460F461D460C9CA81CC0B20290A81DBA
:103DD0000190AA20207002986070A670E770002DF4
:103DE00004DD2A46201D0599FCF7F6F9601C0299AE
:103DF000FDF712FB291D60545521681D21540198BF
:103E000007B0F0BD7047000000B591B00AA10C48A2
:103E1000FCF744FA002807D101A800F0EDFB01A946
:103E2000084800F090FD04E003A2054906A003F055
:103E3000D5FC11B000BD0000444154410000000019
:103E40000C02002000000440444542554720556EB6
:103E50006B6E6F776E2041535250524F20434D444A
:103E60003A205B25735D2076732045787065637416
:103E700065643A205B25735D0D0A0000002003494C
:103E80000870034908800349087070470800002043
:103E90000A0000200C00002070470000042806D112
:103EA0000649096904221143044A116105E00349E6
:103EB000096904229143014A1161704700E000E062
:103EC000002803D10021094A91610EE0012806D1A2
:103ED0000649096901221143044A116105E00349B9
:103EE000096949084900014A1161704700E000E092
:103EF000002806D00649096902221143044A1161CB
:103F000005E00349096902229143014A11617047A2
:103F100000E000E0014948617047000000E000E077
:103F20000EB50020009001900A22084902906846D0
:103F3000FCF752F90A2269460548FCF74DF905A03D
:103F4000FEF730F803A0FEF72DF80EBD8201002029
:103F500078010020726573740000000010B52D48D0
:103F60000078002804D001F035F8002029490870B5
:103F700028484078002804D001F06CF8002025493A
:103F8000487024488078002804D000F019FE0020F2
:103F9000204988701F48C078002804D001F00AF832
:103FA00000201C49C8701B480079002804D000F08C
:103FB0006FFF00201749087116484079002804D087
:103FC00000F0ACFE0020134948711248C079002867
:103FD00004D000F059FF00200E49C8710D48007A46
:103FE000002804D000F046FF00200A490872094862
:103FF000407A002804D000F0E9FD0020054948720D
:1040000004488079002804D000F04EFF00200149C8
:10401000887110BD7801002010B529480068401C47
:10402000274908600120274908714871FF21F531AF
:1040300023480068FCF7A0F8002902D1012021499B
:1040400088717D21C9001E480068FCF795F8002999
:1040500002D101201B49C8711B4919480068FCF7AF
:104060008BF8642902D101201649087216491448B8
:104070000068FCF781F8002902D10120114908707D
:104080007D21C9000E480068FCF776F80A2902D1A4
:1040900001200C4948720C4909480068FCF76CF88B
:1040A000002902D1012007494870084904480068E6
:1040B000FCF762F8002902D101200249887010BD86
:1040C000040000207801002088130000B80B0000D5
:1040D00010205849C8600120574908605748006BB4
:1040E000402108435549086300BF55488068272888
:1040F000FBD103E00120400251494860504840682C
:104100000121490208408842F4D102E000204C49D4
:1041100048604B4840680121490208400028F5D119
:10412000454908604548406A03218902884343495C
:104130004862084640680121C90208433F49486077
:1041400000BF3E4880680007C00F0028F9D03B48F8
:104150004068C008C000C01C3849486000BF3748EC
:10416000406B4007400F0328F9D136480068C0086B
:10417000C000401C334908600020304908620846EE
:104180004068491588432D494860084600688915EC
:1041900008432A490860084640680915084327492A
:1041A000486000BF254880684007C00F0028F9D04C
:1041B0002248006B40218843204908630846006874
:1041C000891588431D490860032000068861084658
:1041D0004068491508431949486000BF174880687E
:1041E0008007C00F0028F9D016480068C008C0003A
:1041F000801C144908600020104908620846406885
:10420000C008C000401C486000BF0C48406B40071D
:10421000400F0128F9D10B480068102108430949D3
:104220000860084600680121090308430549086041
:10423000704700000081084000830840008008406B
:1042400000A106400002084000B587B000200190A0
:10425000029003900121890202988843401802903D
:1042600009010298884340180290C90001988843C8
:1042700040180190012301A807C8FDF79FF800220C
:1042800008211C48FDF7C6FD062204210120FCF789
:104290007BFD062208210120FCF776FDE12040028B
:1042A0000490FF210131684681820021C18201838F
:1042B000418304A9104800F0E1FA012211460E489A
:1042C00000F032FB012200210B4800F02DFB0122FF
:1042D0001146094800F018FB192001218140074AC6
:1042E000116000BF00F010F905A10D4800F02BFB94
:1042F00007B000BD00200B400010004000E100E0CE
:10430000554152543020436F6E666967757265641B
:1043100020666F722041535250524F2E0D0A0000FA
:104320000000044038B5FF210131354800F09CFA07
:10433000012837D10102324800F092FA31488088D2
:10434000002805D1002204212D4800F0DDFA29E0E3
:10435000002423E02B488088002818DD2948408865
:10436000294A115C264800F0DDFA26494988481C94
:10437000C117090E091809120902411A8AB2214906
:104380004A8008468088401E81B21E4881801D48B0
:104390008088002800D103E0601C84B2012CD9DBA6
:1043A00000BF00BF2021164800F05EFA012826D188
:1043B00016488088FF281ADC114800F0AFFAC1B215
:1043C00012480088124A115410490988481CC11724
:1043D000090E091809120902411A8AB20B490A800A
:1043E00008468088401C81B20848818007E0044864
:1043F00000F094FA009007A003F0F0F900BF38BD78
:104400000010004028040020280300202003002082
:1044100020020020554152543020525820427566E7
:10442000666572204F766572666C6F77210D0A00A3
:104430003049898800290BD12F490978002907DDE7
:104440002E490978002903D12B4A11702C4A11708A
:1044500028498988002901DD2849097841E0254952
:104460004988284A505C234A5288511CCA17120EA8
:104470005218121212028A1A93B21E4A538072B64E
:104480001C498988491E8AB21A498A8062B60A285C
:1044900001D00D2813D118490978002908DD002121
:1044A000174A154B1B78D1540121144A117002E0B0
:1044B0000021134A117000210F4A117011E00E49BA
:1044C0000978132908D20C490A780978491C0A4B43
:1044D00019700B49885404E00021074A1170084AFA
:1044E000117004498988002903DD044909780029ED
:1044F000B5D07047200300201900002018000020CC
:104500000C0200202002002000210448418001808C
:104510008180034841800180818070472003002012
:104520002804002070B504460D46002620E000BF98
:104530002E488088FF28FBDC72B63046711C8EB294
:10454000215C2A4800882A4A115428490988481CB5
:10455000C117090E091809120902411A8AB2234922
:104560000A8008468088401C81B22048818062B65B
:104570002846691ECDB20028D9D11C488088002861
:1045800032DD012204211B4800F0BEF980211948C8
:1045900000F06AF9012827D114488088002823DD1B
:1045A00012484088124A115C124800F0BBF90F49CA
:1045B0004988481CC117090E091809120902411A35
:1045C0008AB20A494A8072B608488088401E81B281
:1045D0000648818062B605488088002804D1002200
:1045E0000421044800F090F970BD00002804002068
:1045F000280300200010004010B5044604E001210B
:104600002046FFF78FFF641C20780028F7D110BDEB
:1046100010B52021144800F027F901280CD11248C8
:1046200000F07CF9C4B211480068002803D020468D
:104630000E490968884700BF02210B4800F014F9B1
:10464000012806D1084800F069F90221064800F067
:1046500007F90821044800F007F9012803D10821CF
:10466000014800F0FDF810BD0010044038000020A3
:1046700000B587B029482A490860002001900290BF
:104680000390012189030298884340180290890011
:1046900001988843401801900912029888434018F5
:1046A0000290012301A807C8FCF788FE0022082118
:1046B0001C48FDF7AFFB062204210020FCF764FB39
:1046C000062208210020FCF75FFB002004900590E3
:1046D0000690E12040020490FF210131684681826A
:1046E0000021C1820183418304A90120800700F0D9
:1046F000C5F81720FEF7F0FB01221146900700F0E5
:1047000003F901220021900700F00EF90122114661
:10471000900700F009F907B000BD0000B0040020C8
:104720002400002000000B4010B52021480600F0B6
:104730009BF8002819D00D48008801218902884281
:1047400002D3002009490880012080070068C1B217
:10475000064802880088401C044B18800448815495
:1047600001214902480500F07BF810BD4C000020F3
:104770007605002000B587B00020049005900690D3
:104780000121890305988843401805908900049801
:10479000884340180490C911059888434018059033
:1047A000012304A807C8FCF709FE002220211A48AB
:1047B000FDF730FB062210210020FCF7E5FA062267
:1047C00020210020FCF7E0FA0020019002900390E5
:1047D000E12040020190FF21013168460181002162
:1047E00041818181C18101A90C4800F047F8012273
:1047F00011460A4800F088F81820FEF76DFB0122E8
:104800000021064800F090F801221146034800F00C
:104810008BF807B000BD000000000B400000044012
:1048200010B520210D4800F01FF8002807D00B48D4
:1048300000F074F8C4B22046FDF774FB00BF0221FB
:10484000064800F011F8012806D1044800F066F887
:104850000221024800F004F810BD000000000440EE
:1048600002690A4002617047024610690840002848
:1048700001D0012070470020FCE7000070B504461D
:104880000D4660681C490840E9880843A988084328
:1048900029890843698908436060012080078442B0
:1048A00007D11820FCF76EFD06462968FBF764FC6B
:1048B00060621248844207D11A20FCF763FD064665
:1048C0002968FBF759FC60620D48844207D11C201F
:1048D000FCF758FD06462968FBF74EFC6062094864
:1048E000844207D11E20FCF74DFD06462968FBF7E0
:1048F00043FC606270BD0000FCE0FFFF000004406C
:104900000010004000100440002A03D0C3680B438D
:10491000C36002E0C3688B43C36070470146086808
:1049200080B270470160704710B5002A05D0436817
:1049300010248C402343436004E0436810248C40DF
:10494000A343436010BD0FB410B5CCB0044650A8CB
:104950000190FF21293102A8019B4F9A00F0F0FC41
:104960000020019002A9204600F005F84CB010BCD0
:1049700008BC04B0184770B506460C46002505E093
:10498000615D304600F01CF8681CC5B2605D00280F
:10499000F6D170BDF8B507460D46164600240CE06A
:1049A000295D3846FFF7BEFF00BF80213846FFF77C
:1049B0005BFF0028F9D0601C84B2B442F0DBF8BD84
:1049C00070B504460D4629462046FFF7ABFF00BFF1
:1049D00080212046FFF748FF0028F9D070BD0EB5B2
:1049E00000200090019002900121890301988843E2
:1049F00040180190C9000098884340180090891120
:104A000001988843401801900123684607C8FCF7C5
:104A1000D5FC0EBD10B5062210210120FCF7B4F91B
:104A2000062220210120FCF7AFF9002220210248B4
:104A3000FDF7F0F910BD000000200B401A20012105
:104A40008140024A116000BF7047000000E100E0B1
:104A50000EB5E12040020090FF21013168468180BF
:104A60000021C1800181418169460948FFF706FFA5
:104A7000012200210648FFF757FF01221146044892
:104A8000FFF752FF012211460148FFF73DFF0EBD1F
:104A9000001004400146502901DB642070471E29A4
:104AA00001DB3C20FAE70F2901DB1E20F6E700209E
:104AB000F4E7000010B5044607492046FBF764FF01
:104AC00001D80A2010BD05492046FBF75DFF01D83B
:104AD0000520F7E70020F5E7000070410000A04046
:104AE00010B5044607492046FBF74EFF01D20520CA
:104AF00010BD05492046FBF73DFF01D20320F7E733
:104B00000020F5E7000096420000F04110B5044691
:104B10000B492046FBF738FF01D80A2010BD094990
:104B20002046FBF731FF01D80620F7E7064920466B
:104B3000FBF72AFF01D80320F0E70020EEE7000092
:104B4000000016430000964200000C4210B50446D7
:104B500004492046FBF718FF01D80A2010BD0020A9
:104B6000FCE700000000964310B5044607492046C4
:104B7000FBF70AFF01D2052010BD05492046FBF7CF
:104B8000F9FE01D20320F7E70020F5E70000F0412D
:104B90000000704110B5044607492046FBF7F4FEBB
:104BA00001D8082010BD05492046FBF7EDFE01D8CD
:104BB0000420F7E70020F5E70000484300004842E2
:104BC00010B5FFF773F8FCF7E9FF10BDF0B589B039
:104BD000002463E0601CC7B24420604331494018A0
:104BE00040300178442060432E4A8018403080785D
:104BF000814222D04420604311464018403006785C
:104C00004420604340184030837832463946264875
:104C100002F0E4FD01AA31463846FCF786FD85B274
:104C2000002D09DD294601A8FCF70EFB4420604356
:104C30001C4940184030867000BF44206043194929
:104C400040184030417844206043164A8018403074
:104C5000C078814221D04420604311464018403042
:104C600046783246394611A002F0B8FD01AA314615
:104C70003846FCF74DFD85B2002D0DDD294601A813
:104C8000FCF7E2FA394617A002F0A8FD4420604381
:104C9000044940184030C67000BF641C032C99DBE7
:104CA00009B0F0BD64000020607900004449535011
:104CB000415443483A20536C617665202564206155
:104CC0006C61726D20737461747573206368616EBA
:104CD00067656421205461726765743A2025640D0C
:104CE0000A00000044495350415443483A20536558
:104CF0006E7420616C61726D20636F6D6D616E64A6
:104D000020746F20536C617665202564207669617C
:104D100020554152542E0D0A0000000038B5684657
:104D2000FDF7ACF8002879D068460078012802D059
:104D3000022871D128E068464078002823D13848FD
:104D40004078401CC1B2364841704078022802DDEC
:104D5000002133484170012131480B38C1720B30BA
:104D6000417830A0FDF71EF92D4841782DA0FDF7C0
:104D700019F92B4841782BA0FDF714F92848417800
:104D80002FA002F02BFD48E068464078012820DB88
:104D90006846407803281CDC68464078401EC4B250
:104DA0006846817844206043284A8018403001706A
:104DB000012162001A48801C815444206043234B27
:104DC000C018403002786846417821A002F006FD04
:104DD0001FE068464078AA281BD1002417E06846E7
:104DE000817844206043194A8018403001700121C5
:104DF00062000B48801C81544420604313494018D2
:104E000040300278611C12A002F0E8FC641C032C04
:104E1000E5DB02E002E0FFE700BF00BF38BD0000B5
:104E20006F01002070305F686F6D652E765F666180
:104E30006E5F6D6F64652E76616C3D2564000000C9
:104E40006D6F64653A202532640D0A00640000200D
:104E500049443A2025752E205461726765742046B6
:104E6000616E2053706565643A202533642E0D0A07
:104E70000000000010B503484078012801D0FDF77C
:104E80000BF910BD6F01002010B5FDF77FF910BDC3
:104E900010B50020FCF790FE0446002C02D02046FE
:104EA000FEF79EFD10BD000010B51D48C07A012818
:104EB0001AD11B480B3041781AA002F08FFC184819
:104EC0000B30417821A0FDF76DF815480B30417883
:104ED0001EA0FDF767F812480B3041781BA0FDF7C4
:104EE00061F800210E48C1720D480B30407801284E
:104EF00014D00B48C03802781BA11CA0FDF78AF81B
:104F000007487C38027818A11EA0FDF783F80448F2
:104F10003838027814A121A0FDF77CF810BD0000FC
:104F20006401002050726F63657373696E67204D72
:104F30006F6465204368616E6765205265717565B1
:104F400073743A2025640D0A0000000070305F6819
:104F50006F6D652E765F66616E5F6D6F64652E7630
:104F6000616C3D256400000076616C0070325F6307
:104F700074726C2E66616E5F73706565645F6964E0
:104F80005F31000070325F6374726C2E66616E5F19
:104F900073706565645F69645F32000070325F63DF
:104FA00074726C2E66616E5F73706565645F6964B0
:104FB0005F33000010B5FFF73BFA05480078002882
:104FC00004D0002002490870FEF71EFF10BD00004B
:104FD000180000207FB56B4601AA02A903A8FCF7C0
:104FE00022FB002826D168460078FBF7FAFB06462C
:104FF0001649FBF71AFA044668460079FBF7F1FBFD
:1050000005462146FBF77BF9114948606846007A5E
:10501000FBF7E7FB06460D49FBF707FA044668462F
:10502000007BFBF7DEFB05462146FBF768F90849E4
:105030004C39C864FDF7EEF805498860FDF7C0F902
:105040000446FBF7CEFB0249C8607FBD000020414B
:105050003001002010B56D49C86CFBF7EBFB04462E
:1050600022466BA16BA0FCF7D5FF6849C86CFBF723
:10507000E1FB0446224666A166A0FCF7CBFF63492C
:10508000C86CFBF7D7FB0446224661A161A0FCF780
:10509000C1FF5E494C314868FBF7CCFB0446224611
:1050A0005BA15FA0FCF7B6FF58494C318868FBF75D
:1050B000C1FB0446224656A15CA0FCF7ABFF534956
:1050C00080398868FBF7B6FB0446224650A15AA0F7
:1050D000FCF7A0FF4D498039C868FBF7ABFB0446DD
:1050E00022464BA157A0FCF795FF484980394869F3
:1050F000FBF7A0FB0446224645A155A0FCF78AFF1A
:10510000424980390869FBF795FB0446224640A1D5
:1051100052A0FCF77FFF3D4980398869FBF78AFB85
:10512000044622463AA150A0FCF774FF3749803963
:10513000C86CFBF77FFB0446224635A14DA0FCF767
:1051400069FF32498039086DFBF774FB044622463B
:105150002FA14BA0FCF75EFF2C498039886DFBF72F
:1051600069FB044622462AA148A0FCF753FF2749C1
:105170008039486DFBF75EFB0446224624A146A019
:10518000FCF748FF21498039C86DFBF753FB044603
:1051900022461FA143A0FCF73DFF1C490831886847
:1051A000FBF748FB0446224619A141A0FCF732FF59
:1051B00016490831C868FBF73DFB0446224614A196
:1051C0003EA0FCF727FF114908314869FBF732FB85
:1051D000044622460EA13CA0FCF71CFF0B490831F7
:1051E0000869FBF727FB0446224609A139A0FCF712
:1051F00011FF064908318869FBF71CFB044622466B
:1052000003A137A0FCF706FF10BD0000E40000205A
:1052100076616C0070305F686F6D652E6E300000D7
:1052200070305F686F6D652E6E31000070305F68A2
:105230006F6D652E6E32000070315F656E762E6E7A
:105240003400000070315F656E762E6E3500000010
:1052500070315F656E762E6E3600000070315F65CE
:105260006E762E6E3700000070315F656E762E6EA2
:105270003800000070315F656E762E6E39000000D8
:1052800070315F656E762E6E3130000070315F6573
:105290006E762E6E3131000070315F656E762E6E47
:1052A0003132000070315F656E762E6E3133000052
:1052B00070315F656E762E6E3134000070315F653F
:1052C0006E762E6E3135000070315F656E762E6E13
:1052D0003136000070315F656E762E6E313700001A
:1052E00070315F656E762E6E313800000FB41CB5DC
:1052F0000A46521E0192009007A9064B6A4606987C
:1053000000F0AEF9009A002111701CBC08BC04B07A
:1053100018470000995D00000FB410B504A9074BB1
:1053200002AA039800F09CF9044602A9002000F0AC
:105330003EFD204610BC08BC04B01847AF5D00001D
:105340007CB51C461546491E01910090044B6A46E7
:105350002146284600F084F9009A002111707CBD96
:10536000995D00002021020C01D010211046020A94
:1053700001D010460839020901D01046091F8208E1
:1053800001D01046891E420801D0881E7047081AB5
:10539000704730B47446641E2578641CAB4204D355
:1053A000635D5B00E31830BC18471D46F8E700005A
:1053B0004900CA020243100000D004204A0D01D067
:1053C00001221043044A490D914201D102210843B0
:1053D000012800D105207047FF070000F8B50446FA
:1053E0004F1EC8000838211815461E46086849682F
:1053F0003A4606239A4310D02A463346FBF706F96D
:105400003A46D200083AA3181A687F1E5B68FBF779
:105410004BF806223B469343EED1022F23D0042FB4
:1054200011D0062F2FD12A463346FBF7EFF8E36A57
:10543000A26AFBF739F82A463346FBF7E7F8636AB6
:10544000226AFBF731F82A463346FBF7DFF8E369B7
:10545000A269FBF729F82A463346FBF7D7F86369B8
:105460002269FBF721F82A463346FBF7CFF8E368B9
:10547000A268FBF719F82A463346FBF7C7F86368BA
:105480002268FBF711F8F8BD002210B5134610464C
:105490000149FBF723F910BD0000F03F10B5FBF701
:1054A00003F810BD002210B5134610461146FBF755
:1054B00015F910BD10B50721024A00200907FBF7B6
:1054C00071FB10BD01030000034A10B50020110755
:1054D000FBF768FB10BD000001FDFFFF02E008C8FC
:1054E000121F08C1002AFAD170477047002001E05E
:1054F00001C1121F002AFBD170470000014908605A
:105500007047000060000020F0B51FB484B0079819
:105510000699020D014314D04A484B4910184843DC
:1055200005140F9801280E981CD0281A401C00243E
:10553000464E4749009401910290002814DA4742F0
:1055400027E00F98012443A3012808D000210498E4
:105550000F9A84600360C260416009B0F0BD0E988C
:10556000C143F4E74042E2E7074612E0F80707D0FC
:105570002246334601990098FBF748F801910090C4
:105580002246334610461946FBF740F804460E46BD
:105590007F10002FEAD10298019B0028009A0799FA
:1055A000069802DAFBF732F801E0FBF797F80446B9
:1055B0000E460022284BFBF7ADF903D80020C0436C
:1055C000014607E00022254B20463146FAF76CFFE2
:1055D000FBF7FEFA102409E0002C0ADB0A22002364
:1055E000FBF7DCF9059B30321A55641E02460A436C
:1055F000F2D11122641C059B121B1C190F9B012B5D
:1056000003D0012308430ED10AE0084304D011203F
:105610000E9000200F9084E70E98151A6D1E0BE077
:105620000E98824202DD00236D1C03E0824201DA03
:1056300000236D1E002BEED004980F998260C1608C
:1056400030C08AE701FCFFFF104D0000000024403D
:105650000000F03F300000000000F0430000E03F99
:10566000FFB597B00646002518E2252877D100241B
:105670002746FD49049400E00443761C327801205B
:10568000203A90400842F7D130782A280ED00222E2
:10569000307801463039092916D804990A2359432C
:1056A000303940181443761C0490F1E7189802C86A
:1056B00004911890002904DA012040030443484271
:1056C000049002200443761C30782E2814D1042044
:1056D00004437078761C2A2809D11898761C80C853
:1056E000189009E00A214F43303FC719761C3078E3
:1056F000014630390929F5D930786C2810D006DCFC
:105700004C281AD068280ED06A2817D104E07428D3
:1057100013D07A2812D110E00120400504430CE098
:105720000121090501E0032109050C43717881423B
:1057300003D1012000052418761C761C30781190C6
:1057400066280BD013DC58287DD009DC00287BD0DC
:105750004528F6D04628F4D047281AD1A5E118E00C
:10576000632835D0642870D0652812D19DE1702857
:105770006CD008DC6728F1D069287BD06E280DD06A
:105780006F2806D1BAE073282ED0752871D07828FA
:1057900059D01A9A199990476D1C7EE16002400F0A
:1057A000022809D003280DD00428189801680DD0CC
:1057B0000D60001D189070E11898EA1701680D60DF
:1057C0004A60F6E7189801680D80F2E70D70F0E77F
:1057D00018986A4601781172001D189000205072C6
:1057E00002A80090012005E0189802C81890002037
:1057F0000091C04361070DD5002101E00199491CCA
:105800000191B94212DA8142F8DB009A515C002919
:10581000F4D10BE0002101E00199491C0191814282
:10582000FADB019A0099895C0029F5D10199049865
:105830001A9B471A21463846199A00F097FA01999F
:10584000401945180BE04FE02CE113E04EE00098C2
:1058500000990078491C00911A9A1999904701986B
:10586000401E0190401CF2D1214638461A9B199ADD
:1058700010E137E00A200021009001916002410F01
:10588000022907D0189A01CA1892C2179446032910
:1058900008D00AE01898C01DC108C90005C91891B0
:1058A000944607E000B2C2179446042902D140B2E0
:1058B000C1178C4600226146944506DA0A4600214B
:1058C000404291418C462D2102E0210504D52B2137
:1058D0006A461173012103E0E10701D02021F7E7B7
:1058E000029155E00A200AE0102008E01020009004
:1058F0000021042004430191082703E0082000212F
:10590000019100906002410F022907D0189A01CA44
:10591000189200229446032908D008E01898C01D68
:10592000C108C90005C91891944603E080B2042952
:1059300000D1C0B200210291210729D51199702907
:1059400006D0009A1021019B4A401A4305D00EE070
:1059500040216A461173012108E06146014306D0E7
:1059600030216A4611731199517302210291009AF4
:105970000821019B4A401A430AD16146014301D1E3
:10598000610705D530216A46117301217F1E0291FE
:105990001199582904D035A10E910DA90D910DE052
:1059A00037A1F9E76146019B009AFAF7F7FF0E9BD2
:1059B0008C469B5C0D9A521E0D92137061460143FA
:1059C000F0D10D9805A9081A20300190600703D581
:1059D00001200004844300E001270198874201DD93
:1059E000381A00E000200199009041180298091827
:1059F0000498401A0490E00306D421461A9B199A91
:105A0000049800F0B3F94519002706E003A81A9A94
:105A1000C05D199990476D1C7F1C02988742F5DB89
:105A2000E0030CD521461A9B199A049800F09EF9C0
:105A3000451904E01A9A3020199990476D1C009975
:105A4000481E00900029F5DC08E00D980D990078BB
:105A5000491C0D911A9A199990476D1C0199481E7D
:105A600001900029F1DC63E1092801003031323373
:105A7000343536373839616263646566000000008A
:105A80003031323334353637383941424344454674
:105A90000000000000F05AF94519761C3078002803
:105AA00000D0E2E528461BB0F0BD600700D4062711
:105AB0001898C01DC108C90048680A680831C30F9A
:105AC000DB071891190001D09CA108E0210501D540
:105AD0009BA104E0E10701D09AA100E09AA1430054
