:020000040000FA
:10000000482A0020C1000000912E0000F51F0000CA
:10001000FFFFFFFFFFFFFFFFFFFFFFFFFFFFFFFFF0
:10002000FFFFFFFFFFFFFFFFFFFFFFFFA9440000EF
:10003000FFFFFFFFFFFFFFFF15440000330100003B
:1000400035010000350100003501000035010000D8
:1000500035010000350100003501000035010000C8
:1000600035010000FFFFFFFF3501000035010000F2
:10007000350100003501000035010000FFFFFFFFE2
:10008000FFFFFFFFD911000035010000350100001E
:10009000350100003501000035010000014D000070
:1000A000F94D0000FD480000E94B0000350100005B
:1000B0003501000035010000350100003501000068
:1000C0001D4880471D4880471D4800471D4801695D
:1000D000002908D14169002905D18169002902D18F
:1000E000C169002909D01848C1680901090D002912
:1000F0000ED005290CD006290AD0BFF34F8F134824
:100100001349016013491248C860BFF34F8FFEE7DF
:100110000E4801680E48884200D070470E480F49CB
:1001200001600A480E4901607047FEE7FEE7FEE7FE
:10013000FEE7FEE7FEE70000CD000000A946000054
:100140006501000000030840800108400000002015
:100150000400FA0500ED00E0008108400100000005
:10016000000000000348854600F044FD00480047B9
:10017000D1640000482A002030B50B46014600201B
:100180002022012409E00D46D5409D4205D31D469D
:100190009540491B2546954040191546521E002D95
:1001A000F1DC30BD70B500242546002801DA0124B9
:1001B0004042002901DA01254942FFF7DDFFAC4248
:1001C00000D04042002C00D0494270BD0146413968
:1001D000192900D82030704703460B439B0703D0F2
:1001E00009E008C9121F08C0042AFAD203E00B78FC
:1001F0000370401C491C521EF9D27047D2B201E074
:100200000270401C491EFBD270470022F6E710B571
:1002100013460A4604461946FFF7F0FF204610BD74
:10022000421E5378521C002BFBD10B781370491CD3
:10023000521C002BF9D1704730B505462A460B46B3
:1002400010781C78521C5B1C002801D0A042F7D00B
:10025000002C03D0002802D06D1CEFE7284630BDEB
:10026000CAB2401E4178401C8A4202D00029F9D10E
:1002700000207047421C0178401C0029FBD1801AE5
:10028000704710B5002200E0521C835C8C5CA342D6
:1002900001D1002BF8D1D8B2E1B2401A10BD10B58F
:1002A000044600E0401C0378002BFBD100E0401C1A
:1002B000521E04D30B78491C0370002BF7D1002188
:1002C0000170204610BD30B505460020034600E011
:1002D0005B1C934205D2EC5CC85C201A01D1002C57
:1002E000F6D130BDF8B502464A40D40F42004B006B
:1002F00052085B089A4202D20246084611464A005A
:1003000023D0C30D4A00DDB2120EAD1A202D35DA0E
:1003100049020126490AF6058A19002C00D05242EA
:1003200020214F1B1146B9402A411018C20D9A4294
:1003300021D0002C17D0012D08DCDA05801AD20F4D
:100340008019D207DBB200F087FBF8BDDA05801A0E
:10035000012340001B06C01880185A428018CA0F9B
:100360001043490007E04908C2071143DA05801A23
:1003700080194008801800F067FBF8BD6100012279
:10038000511A001BF7E70122D2075140AAE70122C8
:10039000D2075040A6E7024670B54A40D30FDB07AC
:1003A00040002DD04A002AD0010E140E0002120285
:1003B0000919400A520A8418E50104465443000A08
:1003C000120A2E045043A4194219200CC543AA183E
:1003D000120C0125AD03521C521912047F3924045A
:1003E00000D0521C104301D44000491EC2B20C067A
:1003F000C0092018401C4008802A02D003E00020D9
:1004000070BD40084000002900DA0020184370BD8C
:1004100070B502464A40D50F40004A00ED0740083B
:100420005208002814D0002A12D0C40DD30D410266
:100430000120C0055202490A520AE41A091812188A
:100440007D34914201D3641C00E04900002C01DAA4
:10045000002070BD0023914201D3891A0343400854
:1004600049000028F7D100290AD0914202D1012188
:10047000C90705E0914201D2012101E00121C943F0
:10048000E005C018401900F0DFFA70BDF0B507466E
:100490000846584087B0C00F049048000E465900E7
:1004A00040084908BC1A884105D2384631461E46E4
:1004B00017460B4602465800400810434CD0300DFA
:1004C000039040055900400D490D0590401A0290D7
:1004D000402872DA18030121000B09050843019036
:1004E00004980092002805D00199524200208841CA
:1004F00000920190029840210A1A0199009800F098
:100500006FFA05460C466B4607CB00F08AFAC01915
:100510007141039A0E0D0023D71756401A467A40B0
:10052000164344D0049A002A2DD0029A012A039A35
:1005300015DC1205C01A914101263605001C7141D7
:10054000D20F059ED2070093019202962A462346B7
:1005500000F0C8FA07B0F0BD38463146FAE7160594
:10056000224A0F46B218C01AB74101210905001CE2
:100570004F4100187F41114618187941E20F10438E
:100580006D19644113E0E2076D0815436408C20762
:100590001443039A01261205C01A91413605001C26
:1005A0007141CE07400830434908C01851412A46DE
:1005B000234600F08AFACDE7FFE7049801224000C5
:1005C000C117121A00238B4104983146C417381AF8
:1005D000A141EEE730B40124E407634030BC55E7A5
:1005E00030B40124E407614030BC4FE70000E0FF75
:1005F000F0B51FB488B00B990998002448400999B8
:10060000C00F490049080991C0070B9900904900A3
:1006100049080B9109990898A64608431CD00B99E4
:100620000A98084318D0099801244000420D480058
:10063000410D099824050003000B204309900B98F5
:100640000003000B20430B9050181C494018002257
:1006500001901446104605E0002001460DB0F0BDA3
:10066000032801DA034600E003239C46C11A0AAEC0
:100670000AE05F0008ADED5B4F00F75B7D430027AC
:10068000AA187C41491C5B1E6145F2DD410004ABA8
:100690005A522104120C0A43240C401C0828DFDBA8
:1006A000019802900099704601910090059B049A70
:1006B0000799069800F016FAD0E700000DFCFFFF3E
:1006C000F0B50C465C4085B0E40FE40703944C00A1
:1006D00000266408590094464908024602962243BF
:1006E00021D062460A431ED06200570D4A000E0315
:1006F0002303550D012402462C492405781B1B0BAE
:10070000360B401823432643614600901C46501A7E
:10071000B44103D30098401C009002E09218009866
:100720005B41002803DA0020014605B0F0BD00203F
:10073000012109050746864611E064461D46141B43
:10074000B54106D36546521BB341744607430C437B
:10075000A646CD0740084908284392185B41054644
:100760000D43EAD11046184313D060461946504055
:100770007140084306D06046101AB34106D20122E8
:10078000002306E000220123DB0702E00122D2431E
:100790005310009874460105381C6141029C039D6A
:1007A0000019694100F091F9BFE70000FD03000066
:1007B000C217C10F504010B54018CA079623002138
:1007C00000F04AF910BD10B500229623114600F042
:1007D00043F910BD0EB5C217C10F5040CA074018EB
:1007E0000021054B0293019200910A460B4600F04E
:1007F00079F903B000BD0000330400000EB50549CF
:100800000291002100910A460B46019100F06AF91D
:1008100003B000BD33040000C20F410040020123B9
:10082000400ADB05D207090EC0187F2901DA002033
:100830007047962903DC9623591AC84001E096397F
:100840008840002AF4D040427047000070B5CD0FB8
:100850004A0009030123090B1B0519430B4BED0744
:100860000024520D9A4201DA002070BD074B343348
:100870009A4203DC9A1A00F0C3F802E004495118C6
:1008800088402C43F1D0404270BD0000FF030000BF
:10089000CDFBFFFF4A0009030123090B1B05194388
:1008A000094B10B5520D9A4201DA002010BD064BDB
:1008B00034339A4203DC9A1A00F0A2F810BD0349BF
:1008C0005118884010BD0000FF030000CDFBFFFF62
:1008D000C20FD207400040080BD0C10D0723DB0137
:1008E000C91840020905400A1143C20840071143D4
:1008F000704700200146704710B5002904DB012431
:10090000E40740428C412146002B04DB1C460123B6
:10091000DB075242A341994200D1904210BD000032
:10092000CB0FDB07490010B5490802460A4307D040
:100930000A0D07240903E401090B121B002A01DC3C
:10094000002010BDC900440F0C43C100E018D205BF
:10095000801800F079F810BD0122D207002800DBD2
:10096000101A002900DB511A814270470122D20778
:10097000002800DB101A002900DB511A884270475A
:10098000F0B51FB40646002082B005464024019110
:1009900000901BE0019922460F46304600F030F8E7
:1009A000049A059B801A994110D310461946224695
:1009B00000F016F8361A8F410197224601200021D7
:1009C000009F00F00DF838184D4100902046641E3D
:1009D0000028DFDC019B00982946324607B0F0BDB5
:1009E00010B5202A04DB0146203A9140002010BDBA
:1009F000914020239C1A0346E3401943904010BDC8
:100A000010B5202A04DB0846203AD040002110BD52
:100A10000B46D340D0402024A21A914008431946E7
:100A200010BD10B5202A06DBCB170846203A10412E
:100A3000C1170B4306E00B461341D0402024A21AF5
:100A400091400843194610BD002904DA401C4900B2
:100A500001D140084000704770B40024050C05D156
:100A60001024000402D1002921D01124050E01D147
:100A700000020834050F01D10001241D850F01D1AA
:100A80008000A41C002801DB4000641C002908D061
:100A900020252E1B0D46F540A14000D00121294301
:100AA000084301061B1B000ADB1D02D5002070BC99
:100AB0007047DB05181880180029F8DA401C490037
:100AC000F5D170BC40084000704710B5002B08DA23
:100AD0000024401C614192185B411A4301D1400837
:100AE000400010BDF0B51FB482B005460C0003D025
:100AF000084604F04FFD02E004F04CFD20300246B1
:100B0000009021462846FFF76BFF049B059A044698
:100B10000F4618431143084314D0184610431BD006
:100B2000009840210A1A18460599FFF769FF054603
:100B30000E46009A05990498FFF752FF084305D026
:100B4000012004E02046394607B0F0BD0020C1175F
:100B500005430E432C43374300990E986305401A12
:100B60007905E40A00220C43FD0A0A3002D5002070
:100B70000146E9E70105101969410C9C0D9D00191A
:100B80006941FFF7A2FFDFE770B54B005B08034345
:100B90000BD04B005C0D002633466542B341D417A1
:100BA000AD1AA34102DB0020014670BD12053018CA
:100BB000514170BD4A0009030123090B1B0519436C
:100BC0000A4B10B5520D9A4202DA0020014610BDC0
:100BD000064B34339A4203DC9A1AFFF711FF10BD1B
:100BE000034BD218FFF7FCFE10BD0000FF0300000E
:100BF000CDFBFFFF064C0125064E05E0E36807CC60
:100C00002B430C3C98471034B442F7D3FFF7AEFAAD
:100C10003C7D00005C7D0000FEB500231A461B1AD7
:100C20008A4103DB0020014603B0F0BD4A000D03FA
:100C300001212D0B0905520D0D43D10702D10018DA
:100C40006D41521E5110FF31FF3101310027044622
:100C50003E463846009701910246012100200905D1
:100C6000FFF7CEFEC3197141F818324684468E460E
:100C70004A4161462846611A904104D36046241ACD
:100C8000954176461F46241900986D41401C0090FE
:100C90003428E1DDF91930467041091BA84103D21F
:100CA0000022D243134601E00022134601980105B9
:100CB000381C7141FFF709FFB6E770B58C1805784D
:100CC000401C6B075B0F01D10378401C2A1106D131
:100CD0000278401C03E006780E70401C491C5B1E25
:100CE000F9D12B0705D40023521E0DD40B70491CDB
:100CF000FAE70378401CCB1A921C03E01D780D70B4
:100D0000491C5B1C521EF9D5A142D8D3002070BDEE
:100D1000002904D0026880231A43026003E00268BD
:100D200080239A430260704702468B0010463030A1
:100D3000C05880B2704770B50C469510AE00051DC6
:100D4000A9599507EE0E1F25B5402B460D469D432C
:100D500029469507EE0E2546B5402B460D461D4308
:100D600029469510AD00061D715170BD70B503295F
:100D700000D100BF5C1E2404551E2D022C430C43E1
:100D80000568802635402C43046070BDCA06D20E2B
:100D900002674A09520142677047016840221143C5
:100DA0000160704701627047002904D0426F01233F
:100DB0001A43426703E0426F52085200426770478D
:100DC000F7B50B46009DED00154EAA190020002432
:100DD0000027002120E000240027FF258D401D4032
:100DE000002D17D000200FE01D46C54001268E4083
:100DF0003540002D07D086000F25B5402C438600D6
:100E0000029DB5402F43401C0828EDD31568A5432B
:100E10003D431560121D08310829DCDDFEBD0000D0
:100E20002020024000222C49CA644C314A608A606A
:100E3000CA604A610A61294ACA61294A4A62274A44
:100E40008A62274ACA6200223F314A70002038E095
:100E5000002244214143204B803B5A5444214143CA
:100E6000C9184A6044214143C9188A60442141435A
:100E7000C918CA6044214143C9180A614421414349
:100E8000C9184A6144214143C9188A61154A44215D
:100E90004143C918CA61144A44214143C9180A622E
:100EA000002243000C498D31CA54430059184A703E
:100EB00044214143084B803BC91840310A70411C12
:100EC000C8B20328C4DB0022034980310A7208310A
:100ED0004A708A7070470000B0010020000048424C
:100EE0000000A0410000704100007042FFB581B0D9
:100EF0000021002200240020009000250446024624
:100F0000014649E00020009003E0491C0098401C85
:100F100000900A98814202D2585C2028F5D00A98A5
:100F2000814200D13BE00A98401A022807D3585C5E
:100F30000D2804D1481C185C0A2800D12BE0585C0D
:100F40000A2800D127E00098002803D02B20C043B6
:100F500005B0F0BD585C3D2806D1601C044602284F
:100F600002D92B20C043F3E7585C7F2804DC585C8F
:100F70003C4E305C7F2802D12B20C043E8E7585C10
:100F8000384E305C402804DA002C02D02B20C043BD
:100F9000DEE7521C00BF491C0A988142B2D300BF51
:100FA000002A04D10026039806600020D0E7D60866
:100FB000062046435007400F06277843C01DC0084F
:100FC0003218121B0198002802D00298904204D2D5
:100FD000039802602920C043BAE703240020024698
:100FE0000090019D36E018780D2805D018780A2861
:100FF00002D01878202800D12AE01878194E305CE9
:10100000402801D1012000E00020241A009880012E
:101010001E78144FBE5DB606B60E30430090501CCD
:101020000246042813D10022002C04D000980002AC
:10103000000E28706D1C012C04D900980004000ECD
:1010400028706D1C022C02D9009828706D1C00BFFE
:10105000491E5B1C0029C6D101982E1A0398066010
:10106000002075E77D7A0000FFB585B01D4600269B
:101070000020049003900290019000240E98002814
:1010800005D1002107980160002009B0F0BD0321BF
:101090000E98FFF771F8074603210E98FFF76CF8DA
:1010A000002901D0012000E00020381804904849B0
:1010B0000498884206D90021C94307980160292075
:1010C000C043E2E70498800004900498401C06990D
:1010D000814202D30598002806D10498401C079944
:1010E00008602920C043D0E703210E98FFF744F899
:1010F0004100401804900026059C2BE028786D1CC8
:10110000039028786D1C029028786D1C019003983C
:1011100080103049085C2070641C0398010102981B
:10112000001108188006800E2A49085C2070641C93
:10113000029881000198801108188006800E2549C8
:10114000085C2070641C01988006800E085C20708A
:10115000641CF61C04988642D0D30E9886422FD287
:1011600028786D1C0390701C0E99884202D2287852
:101170006D1C00E00020029003980006800E1549C7
:10118000085C2070641C0398010102980011081883
:101190008006800E0F49085C2070641C701C0E993C
:1011A000884207D202980007800E0A49085C207026
:1011B000641C02E03D202070641C3D202070641CF3
:1011C0000598211A079801600020207000BF5CE795
:1011D000FFFFFF3F3D7A000010B503F013FA02480D
:1011E00000F004F810BD00000060074041684908A5
:1011F00049004160BFF34F8F7047002904D0026857
:1012000004231A43026003E0026804239A43026045
:101210007047002904D0026801231A43026003E0EA
:1012200002685208520002607047C16070478160D6
:10123000704710B503F0BFFE03F0D8FE03F0F4FED4
:1012400003F0E8FE10BD000001490860704700008F
:101250000401002070B505460E46002403E0285D19
:1012600000F004F8641CB442F9D370BD10B5044614
:1012700000BF8021084803F0E3FD0028F9D0214693
:10128000054803F03BFE00BFFF210131024803F097
:10129000D7FD0028F8D010BD0010044070B50446FA
:1012A0001F48406B4607760F00F03EF82060330081
:1012B00004F087F9081605080B16160E121620689A
:1012C000606010E0174860600DE0164860600AE05A
:1012D0000120C003606006E07D200002606002E043
:1012E0000020606000BF00BF0D48056A052D02D3D5
:1012F0006068400901E06068E840A0600848806AD2
:10130000072109040840050C072D04D10321A0681A
:10131000FEF732FF01E0A068E840E06070BD000029
:101320000080084000127A00F0B517480068FF27D7
:1013300001373840040A1448C069C50F1248406894
:101340007F003840460A002E01D10020F0BD002C5D
:1013500001D10E4800E00D480346012D01D1184689
:10136000F4E7094880690F27FF053840C10D0029BF
:1013700000D110210448806903277F053840420DC1
:1013800018464843D040E1E70080084000127A0048
:101390007FB50446601180000A49461800252E2CAE
:1013A00000D10225E406E40E0321A1403068084084
:1013B000E04045196846FFF771FF0298E84004B025
:1013C00070BD0000388008403FB50E4C606AE16A8D
:1013D000226B0446009DAC4320460C46019DAC4365
:1013E00021461446029DAC432246002B05D0009CAA
:1013F0002043019C2143029C2243024C6062E16233
:1014000022633FBD00800840054A926A072383405B
:101410009A430B4683401A43014B9A62704700007F
:101420000080084010B502460023002004E0145C50
:10143000E418E3B2441CE0B28842F8DB184610BD61
:1014400010B51BA11F4803F06AFD002400220121F2
:101450001D4800F0ABFC012211461B4800F0B0FC17
:1014600004E0601CC4B2012004F0E6FE012116482D
:1014700000F0C9FC002801D0642CF2DB642C01DBF5
:10148000012010BD002404E0601CC4B2012004F05F
:10149000D3FE01210C4800F0B6FC002801D1642CD9
:1014A000F2DB642C01DB0120EBE70020E9E7000020
:1014B00044485431315F436865636B28766F6964D3
:1014C000290D0A000000044000400B4010B50446FE
:1014D000002C04D00121044800F0A7FC03E0012106
:1014E000014800F061FC10BD00400B400EB500202B
:1014F00000900190029001218904009888434018CF
:101500000090091101988843401801900123684612
:1015100007C8FFF759FF012211460220FFF750FCD0
:1015200000220121064800F041FC01221146044836
:1015300000F046FC00F080F8FFF782FF0EBD0000CF
:1015400000400B4010B5002404E0601CC4B2012030
:1015500004F072FE0121114800F055FC002801D072
:10156000642CF2DB002404E0601CC4B2012004F00F
:1015700063FE0121094800F046FC002801D1642CDB
:10158000F2DB282004F058FE0121044800F03BFC67
:10159000002801D0012010BD0020FCE700400B40D6
:1015A00070B50024002506E06006040EFFF7CAFFB0
:1015B0000443681CC5B2082DF6DB204670BD000050
:1015C0007CB505460E4616A11A4803F0A8FC00F0AB
:1015D00033F8FFF735FF00281ED1002405E0FFF7A0
:1015E000DFFF69460855601CC4B2052CF7DB68466E
:1015F0000178407809186846807809186846C078EC
:10160000091868460079814208D168460078307030
:1016100068468078287001E001207CBD0020FCE74E
:1016200044485431315F526561645F446174610DB7
:101630000A0000000000044010B5012211460A48CB
:1016400000F0B4FB00220121074800F0B9FB0020A4
:10165000FFF73CFF142004F0E1FD0120FFF736FF07
:101660001E2004F0E9FD10BD00400B4010B504A0A1
:1016700006F0CCF902F00AFF0C48FFF7E5FD10BDBB
:10168000444C323020494E464F3A2050726F746FAE
:10169000636F6C204C6179657220496E6974696171
:1016A0006C697A65642E0D0A00000000111A0000B2
:1016B0007CB506460C4615460194012301AA20215B
:1016C0003046009502F07AFE7CBD7CB506460C469D
:1016D00015460194012301AA21213046009502F00C
:1016E0006DFE7CBDF7B59AB005460E4678A006F0B3
:1016F0008DF90020129007E01298295C7BA006F07B
:1017000085F91298401C12901298B042F4DB79A02F
:1017100006F07CF9072E06DB2878AA2803D1701E74
:10172000285C552806D074A006F070F90020C0434C
:101730001DB0F0BD68781890311F1898814207D00D
:10174000321F7B48189906F061F90020C043EFE78B
:10175000681C1899FFF766FE1790B01E295C169159
:1017600016991798814207D07248179A169906F071
:101770004DF90020C043DBE7AF78E8781590281DCD
:1017800014901898801EC0B21390012F01DB032F14
:1017900006DD394668A006F039F90020C043C7E7E6
:1017A000781E442148431C99401804460834159873
:1017B00001287DD113980A2807D00A216748139A77
:1017C00006F024F90020C043B2E714981290129951
:1017D0004A780B781106091419430846FEF7E8FF0A
:1017E0005F491190FEF714FE20601299CA788B7839
:1017F000110219430846FEF7E6FF59491190FEF71A
:1018000007FE606012994A790B7911021943084664
:10181000FEF7D9FF52491190FEF7FAFDA060129928
:10182000CA798B79110219430846FEF7CCFF4C495F
:101830001190FEF7EDFDE06012994A7A0B7A1102E1
:1018400019430846FEF7BFFF45491190FEF7E0FD3A
:101850002061394643A006F0D9F82069FFF738F82F
:1018600011911090E068FFF733F80F910E90A06887
:10187000FFF72EF80D910C906068FFF729F80B9197
:101880000A902068FFF724F80991089011991098A0
:10189000079106900F990E98059104900D990C9858
:1018A000039102900B990A98019100903CA000E0EE
:1018B00005E0099B089A06F0A9F8384638E73A4649
:1018C00044A0159906F0A2F80020C04330E70000BC
:1018D000444C32302044454255473A20506172739F
:1018E000696E67206672616D653A20002530325856
:1018F000200000000D0A0000444C323020455252B6
:101900003A204261736963206672616D6520666F7B
:10191000726D6174206572726F722028534F462F6A
:10192000454F462F4D696E4C656E292E0D0A0000FD
:10193000D87B0000687C0000444C32302045525275
:101940003A20496E76616C696420536C617665203B
:1019500049443A2025642E0D0A0000001C7C00003A
:1019600000002041444C323020494E464F3A20502E
:1019700061727365642073656E736F722064617445
:10198000612066726F6D20536C617665202564203E
:101990007375636365737366756C6C792E0D0A00DD
:1019A000202054656D703A252E31662048756D698A
:1019B0003A252E316620434F3A252E316620536D4D
:1019C0006F673A252E3166204151493A252E3166FE
:1019D0000D0A0000444C3230205741524E3A2055F7
:1019E0006E6B6E6F776E2066756E6374696F6E20B6
:1019F000636F6465203078253032582066726F6DD1
:101A000020536C6176652025642E0D0A00000000CD
:101A100070B504462D480078002802D0012851D125
:101A20000FE0AA2C0CD102F031FD29480188008872
:101A3000401C274A1080274844540120234908703D
:101A400040E023480088802805DB23A005F0DEFF66
:101A500002F01CFD70BD1E4801880088401C1C4A15
:101A600010801C48445410460088022801D129489F
:101A7000047028480078051D15480088042820DBDC
:101A800013480088A8421CD111480088401E114903
:101A9000085C55280BD10E4801881FA005F0B6FF41
:101AA0002B4A0B4801880B48FFF71CFE07E008484B
:101AB0000088401E074A115C26A005F0A7FF02F02F
:101AC000E5FC00BF00BF00BFC4E70000D400002059
:101AD000D600002056020020444C3230204552529D
:101AE0003A20525820627566666572206F7665727C
:101AF000666C6F772E20526573657474696E67200B
:101B00007374617465206D616368696E652E0D0A7A
:101B100000000000D8000020444C323020494E46DE
:101B20004F3A2046756C6C206672616D6520726557
:101B3000636569766564202825642062797465731D
:101B4000292C2070617273696E672E2E2E0D0A008B
:101B500030010020444C3230204552523A20496E28
:101B600076616C696420454F462E20457870656328
:101B700074656420307835352C20676F7420307898
:101B8000253032582E0D0A0010B501218902034874
:101B9000FEF73BFB00200249088010BD42060020F2
:101BA0001801002070B50546002400BF00F0E2F8DF
:101BB000002812D10EA11048FEF73EFB0446002C6F
:101BC0000BD03A212046FEF74BFB0446002C02D0F6
:101BD000641C204670BD0020FCE7052004F01EFBBD
:101BE0002846691E8DB20028E0D100BFF2E7000050
:101BF0004950442C000000004206002010B5FFF7B9
:101C0000C3FF03E0FF20F53004F008FB17A118A084
:101C100000F064F80028F5D103E0FF20F53004F06F
:101C2000FDFA12A114A000F059F80028F5D103E044
:101C3000FF20F53004F0F2FA0CA113A000F04EF8EA
:101C40000028F5D103E0FF20F53004F0E7FA12A1F7
:101C500013A000F043F80028F5D119A11E4803F0A5
:101C60005EF9FF20F53004F0D9FA10BD4F4B0000AB
:101C700041540D0A0000000041542B43574D4F447E
:101C8000453D310D0A00000041542B435744484361
:101C9000503D312C310D0A00474F5420495000006F
:101CA00041542B43574A41503D22496F542D363001
:101CB00035222C224136303541363035220D0A008E
:101CC000352E204553503832363620496E697420FF
:101CD0004F4B0D0A0000000000000440F8B5044618
:101CE0000D46C8262046FEF7C5FA87B23A46214679
:101CF000F00603F03BF910E000F03CF8002809D1B1
:101D000029460948FEF798FA002803D0FFF73CFF60
:101D10000020F8BD0A2004F081FA3046711ECEB2D0
:101D20000028E9D10120F4E74206002030B589B04F
:101D300004460D46FFF728FF2A4609A101A803F033
:101D400003FC0BA101A8FFF7C9FF002805D12A4613
:101D500021460120800703F009F909B030BD0000D9
:101D600041542B43495053454E443D25640D0A00D0
:101D70003E0000000A480088002801D10120704779
:101D80000748008807490988884203D10020044990
:101D90000880F4E702480088024908800120EEE745
:101DA000180100201A01002081627047002A03D028
:101DB00003680B43036002E003688B4303607047D2
:101DC000002A03D043680B43436002E043688B431F
:101DD00043607047002A06D183680B438360C36861
:101DE0008B43C3600EE0012A06D1C3680B43C36076
:101DF00083688B43836005E083688B438360C3689B
:101E00008B43C36070470246D3690B40002B01D05F
:101E1000012000E0002070470246136A0B40002BAF
:101E200001D0012000E00020704741627047002A85
:101E300001D0416200E081627047000010B50446A5
:101E40000848007800280BD0002C04D00322064953
:101E50002046FEF7C1F9002002490870012010BD9C
:101E60000020FCE7E0000020E100002010B5C820C1
:101E700004F0D4F900F096F8C82004F0CFF900205F
:101E800003490870034908700349087010BD000039
:101E9000D9000020DF000020E00000200E49097872
:101EA0000D4A527889180C4A927889180A4AD278D1
:101EB0008918C8B20849097981420CD10649497884
:101EC000064A11700449897851700349C9789170A4
:101ED0000121034A11707047DA000020E100002060
:101EE000E000002010B5044613480078002802D016
:101EF00001281ED109E0A52C06D11048047001204C
:101F00000F4908700C49087013E00D4801780078FB
:101F1000401C0B4A107009484454104600780528AC
:101F200006DBFFF7BBFF0020034908700449087077
:101F300000BF00BF10BD0000D9000020DA00002063
:101F4000DF00002010B504462146054802F0D6FF08
:101F500000BF8021024802F073FF0028F9D010BDB5
:101F6000000004400FB410B5A2B025A80190802154
:101F700002A8019B249A03F0FBFA0446002001907A
:101F8000002C01DB802C06D30020C04322B010BC03
:101F900008BC04B0184702A800F00FF800F002F8DF
:101FA0000020F3E710B5FF20FFF7CCFFFF20FFF77D
:101FB000C9FFFF20FFF7C6FF10BD10B5044603E0C0
:101FC0002078641CFFF7BEFF20780028F8D110BDF0
:101FD00070B504460D46164633462A46214602A0F1
:101FE000FFF7C0FF70BD000025732E25733D256CE3
:101FF0006400000000BF024800680028FBD0704762
:102000000000002010B502F0A1FE02F01DFE02F05B
:1020100007FCFFF70EF9FFF729FB00F04FF900F07E
:10202000EFF9FFF723FF00F0A5F8FFF75FFA03F0E1
:10203000DBFF02A1064802F072FF10BD204861726A
:10204000647761726520696E6974204F4B0D0A00D8
:1020500000000440FEB53B49486903F043F88100A5
:1020600044183849886803F05DF8C00024183549E1
:102070004C39C86C03F064F8C100081A24183149BF
:10208000486803F019F84000201886B2304602F084
:10209000EDFF054600243DE044216143294ACC3A46
:1020A0008918086902F0F2FF0A2107464F434421CC
:1020B0006143244ACC3A8918486903F033F8C000D8
:1020C0003F18442161431F4ACC3A8918886903F0BC
:1020D0004DF880003F18442161431A4ACC3A8918D0
:1020E000886803F02DF8C100081A3F1844216143A5
:1020F000144ACC3A8918C86802F0DEFF400038184C
:10210000610001AA50526100505A02F0AFFF6946C7
:102110000855641C032CBFDB002010E000216A4638
:10212000125CAA4201DA294601E06A46115C4422A7
:102130004243044BCC3BD21840321170401C032860
:10214000ECDBFEBDFC01002010B50121890308482D
:10215000FFF762FE012805D1002281030448FFF742
:1021600066FE04E0012291030148FFF760FE10BD06
:1021700000400B400EB5002000900190029001211C
:10218000890400988843401800900123684607C8D6
:10219000FFF71AF90122032189030548FFF706FE1C
:1021A0000122032189030248FFF741FE0EBD000012
:1021B00000400B4010B501210448FEF7F5FD002159
:1021C0000248FEF7B1FD0446204610BD0000014064
:1021D000F0B58DB0002500270EE0FFF7EBFF08906B
:1021E000FEF7F1FA29460990FEF77CF8054605202E
:1021F00004F014F8781CC7B20A2FEEDB28492846F1
:10220000FEF706F9054627492846FEF7C4F80746B3
:102210008B21C905FEF7FCF804462046FEF758FB63
:102220000022214B03910290FEF7E2F907910690FC
:1022300021461C48FEF7A7F80746FEF749FB059123
:102240000490079B069AFEF73BFA09910890FEF767
:1022500067FB064615480B903046FEF739FB0591A3
:1022600004900B98FEF734FB114A124B0191009039
:10227000FEF7BEF903910290059B049AFEF720FA3F
:10228000072252070C4B0791069004F067FD099155
:102290000890FEF745FB0A900A980DB0F0BD0000CB
:1022A000000020410000A0400000E03FE17AD4405F
:1022B000A089B0E1E9152740F0F4E43F0EB5002015
:1022C0000090019002900121090400988843401871
:1022D00000900902029888434018029089120198E0
:1022E00088434018019010210098884310300090D6
:1022F0000123684607C8FFF767F800220221164845
:10230000FFF754FD012202211348FFF759FD13483E
:10231000FEF743FD02211020FFF776F80222114656
:102320000020FEF74DFD002201210C48FEF703FDC1
:102330000123022211460948FEF718FD0121074832
:10234000FEF724FD10210548FEF72CFD012103486E
:10235000FEF7DEFC0EBD000000000B400000014057
:1023600010B501210448FEF71FFD01210248FEF7C8
:10237000DBFC0446204610BD00000140F0B589B0EA
:102380000024002508E0FFF7EBFF001984B20520C8
:1023900003F044FF681CC5B20A2DF4DB0A21204675
:1023A000FDF700FF84B22046FEF728FA054600221A
:1023B0000E4BFEF785F90E4A0E4B01910090FEF789
:1023C00017F900220C4B03910290FEF711F900223D
:1023D0000A4B05910490FEF759F807910690FEF715
:1023E00059FA87B2384609B0F0BD00000000B0408D
:1023F0006666666666660A4000406A4000002440E1
:102400000EB500200090019002900121090400986F
:1024100088434018009009020298884340180290AF
:102420008912019888434018019010210098884330
:10243000103000900123684607C8FEF7C5FF002250
:1024400080211648FFF7B2FC012280211348FFF7D4
:10245000B7FC1348FEF7A1FC02211020FEF7D4FFC1
:10246000022280210020FEF7ABFC012207210C484C
:10247000FEF761FC0123022200210948FEF776FCE9
:1024800001210748FEF782FC10210548FEF78AFC6F
:1024900001210348FEF73CFC0EBD000000000B408C
:1024A0000000014010B50446207B012802D12068BD
:1024B00003F0F6FE002020606060A060207310BD75
:1024C00010B50246002301230EE05006400E0870AE
:1024D000D209002A05D00878802420430870491CBE
:1024E00001E0184610BD5B1C042BEEDD0020C0434C
:1024F000F8E770B504460E4600252068002814D180
:1025000001202073304604F071F820602068002814
:102510001CD000206060A66003E0002021684855C0
:102520006D1CA068A842F8D810E00220207303E0D8
:102530000020216848556D1CA068A842F8D80020EA
:102540006060A068B04201D20020206070BD000031
:10255000FFB583B0119C0025002002900F27019049
:102560000598FDF787FE00B200900598002802D17B
:10257000012007B0F0BD0098801C381887B20C9875
:10258000002801D0022005430E9800280FD0042017
:1025900005430E98FDF76EFEC0B202900F98FDF74E
:1025A00069FE01460298001D0818C01987B20D98EF
:1025B000002804D0012804D0022808D104E000BF7C
:1025C00007E00C20054304E01420054301E002204D
:1025D000CFE700BF1098002801D0242005430398BE
:1025E000002802D00498002801D10320C1E7C020B0
:1025F00005430398FDF73EFE06460498FDF73AFEB4
:102600003018001DC01987B239462046FFF771FF08
:102610002068002801D10420ABE739462068FDF787
:10262000F4FD10216268501C60602068815463686A
:102630002268D118781FFFF743FF00B2019001987C
:10264000002804DA2046FFF72DFF052091E7616896
:1026500001980818606000216268501C6060206862
:10266000815404216268501C6060206881544D21AF
:102670006268501C60602068815451216268501C5F
:1026800060602068815454216268501C606020683A
:1026900081546268501C6060206881540421626823
:1026A000501C6060206881546168481C606020682C
:1026B0004554FF2109020698084001126268501C27
:1026C0006060206881540698C1B26268501C6060E6
:1026D00020688154FF2109020098084001126268B5
:1026E000501C6060206881540098C1B26268501C20
:1026F000606020688154626821688818009A059992
:10270000FDF7CDFD6168009808186060042028403E
:1027100000283ED000260F98002801D13FA00F903E
:102720000E98FDF7A7FD86B2FF200002304001128F
:102730006268501C6060206881546268501C606050
:102740002068865462682168881832460E99FDF721
:10275000A6FD6068801960600F98FDF78BFD86B25A
:10276000FF200002304001126268501C6060206847
:1027700081546268501C60602068865462682168D9
:10278000881832460F99FDF78AFD606880196060ED
:1027900000BF8020284000281CD00398FDF76AFD68
:1027A00086B2FF200002304001126268501C606057
:1027B000206881546268501C60602068865462689A
:1027C0002168881832460399FDF769FD6068801911
:1027D000606000BF4020284000281CD00498FDF70E
:1027E00049FD86B2FF200002304001126268501C91
:1027F0006060206881546268501C60602068865464
:1028000062682168881832460499FDF748FD6068BF
:102810008019606000BF0020ABE6000000000000EF
:10282000FFB585B01746119C0025002600200490B6
:10283000039002900598002802D1012009B0F0BD54
:1028400000260AE00698805D232803D00698805D64
:102850002B2801D10220F1E7761C0698805D002824
:10286000F0D130210298084302900F98002803D03D
:10287000012102980843029008983018851C0E9890
:10288000002804D0012805D002280FD108E00298C2
:1028900002900DE00221029808430290AD1C07E06F
:1028A0000421029808430290AD1C01E00320C5E713
:1028B00000BF002F35D03878022824D100200190A5
:1028C00000BF0198411C0191385C7D28F9D1019825
:1028D000C01E01900198C01D049004990898401AE8
:1028E0000190E81C019A811A2046FFF702FE206839
:1028F000002801D10420A1E7EA1C019BD11A20681D
:10290000FDF783FC1AE0691D2046FFF7F2FD206801
:10291000002801D1042091E7691D2068FDF775FCAE
:102920000CE0691D2046FFF7E4FD2068002801D176
:10293000042083E7691D2068FDF767FC029962683F
:10294000501C6060206881546268206881182846A5
:10295000FFF7B6FD03900398002804DA2046FFF73E
:10296000A1FD05206AE76168039808186060FF20F0
:1029700000023040010A6268501C60602068815487
:102980006268501C606020688654626821688818FC
:1029900032460699FDF783FC6068801960600E98E6
:1029A000002810D0FF210902059808400112626832
:1029B000501C6060206881540598C1B26268501C48
:1029C000606020688154002F19D0387802280BD11C
:1029D0006268216888183946049AFDF7FDFB616832
:1029E0000498081860600AE062682168881839460F
:1029F000089AFDF7F1FB61680898081860600020EC
:102A00001CE70000F0B591B004460D461646169F2F
:102A100023460CA2302105A8009502F07FFD01207D
:102A20000021009033460A4603970191029005A9C0
:102A30000A20FFF7F5FE002802D0012011B0F0BDFA
:102A40000020FBE7247379732F25732F25732F74D0
:102A500068696E672F70726F70657274792F706F0E
:102A600073740000FFB583B017460C9C002600204D
:102A70000290019000250398002802D1012007B0A0
:102A8000F0BD0CE0A8003858002801D10220F6E77C
:102A9000A9007858FDF7EEFB8619681CC5B20698A8
:102AA0008542EFDB069841004018801C8119029195
:102AB0000299491D2046FFF71CFD2068002801D11E
:102AC0000320DCE782216268501C6060206881542A
:102AD0006268206881180298FFF7F2FC00B201904A
:102AE0000198002804DA2046FFF7DCFC0420C6E742
:102AF0006168019808186060FF2109020398084086
:102B000001126268501C6060206881540398C1B251
:102B10006268501C606020688154002527E0A9008D
:102B20007858FDF7A7FB0646FF2000023040010A57
:102B30006268501C6060206881546268501C60604C
:102B400020688654626820688318A8003958324685
:102B50001846FDF7A4FB6068801960600498C1B254
:102B60006268501C606020688154681CC5B2069879
:102B70008542D4DB002082E7F0B504460D462646A8
:102B8000012300201060002116E0775C7F067F0E95
:102B90005F431068C0191060705C802738400028BF
:102BA00001D1481CF0BDDB0101204005834202D366
:102BB0000120C043F6E7491CA942E6DB0020C043E0
:102BC000F0E701464878022801D001207047887854
:102BD000002802D08878012801D1C878F6E7FF20C4
:102BE000F4E70000FFB585B00D4614461E46059873
:102BF00000780007000F049000200390082104983B
:102C00000840029006210498084041100F98017076
:102C100003AA04210598401CFFF7AEFF0599401850
:102C2000471C0398022804D30498C007C00F00284B
:102C300002D0FF2009B0F0BD38780002797808434F
:102C400020802088801C0399884201D9FF20F1E769
:102C500059A1B81CFDF7F0FA002801D00F20E9E7D0
:102C60000F980078002804D0012840D002287DD198
:102C70003EE00298002801D0FF20DBE72188481CB5
:102C800003F0B4FC28602868002801D1FF20D1E7B8
:102C90002288511C2868FDF7B8FA2288B91C2868D8
:102CA000FDF79AFA0398801E2188401A81B20E9887
:102CB00001800E990988481C03F098FC3060306848
:102CC000002804D1286803F0EBFAFF20B2E70E9A3F
:102CD0001288511C3068FDF798FA0E9802882088F7
:102CE000BB1CC11830680190FDF776FA53E000BFB5
:102CF0002088801C0399884201D9FF209AE7208808
:102D0000801C385C01022088C01C385C014310988C
:102D100001801098002801D1FF208BE72188481CF2
:102D200003F064FC28602868002801D1FF2081E7B7
:102D30002288511C2868FDF768FA2288B91C286887
:102D4000FDF74AFA0398001F2188401A81B20E98B5
:102D500001800E990988481C03F048FC30603068F7
:102D6000002806D1286803F09BFA00E011E0FF205C
:102D700060E70E9A1288511C3068FDF746FA0E98EB
:102D8000028820883B1DC11830680190FDF724FAA5
:102D900001E0FF204EE700BF2B212846FDF760FA37
:102DA000002805D123212846FDF75AFA002801D032
:102DB000FF203FE700203DE72463726571000000BB
:102DC00001464878022801D0012070478878002801
:102DD00004D1C8780A2801D10020F6E70120F4E7E1
:102DE000F8B50446FF2720780511012D01DB0E2DD3
:102DF00001DD3846F8BD032D26D1002000906A463B
:102E00000421601CFFF7B8FE0019461C0098022838
:102E100004D32078C007C00F002801D0FF20E9E7C5
:102E20003078000271780843801C0099884201D9EB
:102E3000FF20DFE706A1B01CFDF7FEF9002801D056
:102E40000F2700E0032700E02F463846D2E70000B6
:102E500024637265710000000146FF208A78002A11
:102E600015D1CA78142A12D10A79002A06D0012A6B
:102E700005D0022A04D0802A06D103E000BF00BF9B
:102E8000002003E0012001E0022000BF00BF7047E6
:102E900070470000C206D20E01219140014A116024
:102EA0007047000000E100E0F0B58BB00546002659
:102EB00000242846FDF7DEF9C7B2002D01D01C2FF3
:102EC00002DA01200BB0F0BD06E0A85D01A988552B
:102ED0000020A855701CC6B2BE42F6DB002001A936
:102EE00088550026002455E001A8805D2B2810D0CD
:102EF00008DC202814D023282ED0252825D02628E9
:102F00003FD130E02F2812D03D2833D03F2838D190
:102F100014E0281922A1FDF783F9E01CC4B236E0C1
:102F2000281920A1FDF77CF9E01CC4B22FE0281974
:102F30001DA1FDF775F9E01CC4B228E028191BA1FA
:102F4000FDF76EF9E01CC4B221E0281918A1FDF7C5
:102F500067F9E01CC4B21AE0281916A1FDF760F960
:102F6000E01CC4B213E0281913A1FDF759F9E01CC5
:102F7000C4B20CE0281911A1FDF752F9E01CC4B24B
:102F800005E001A8805D2855601CC4B200BF00BFE9
:102F9000701CC6B2BE42A7DB0020285500BF91E7D7
:102FA00025324200253230002532460025334600C6
:102FB00025323500253233002532360025334400D2
:102FC000F0B5C9B005460C4616461F46002048908D
:102FD000002D0CD0002C0AD04148864207D3002F88
:102FE00005D04F98002802D05098782802DA0120A6
:102FF00049B0F0BD402118A8FDF707F93846FDF7A4
:1030000039F905903B4648AA4021009018A8FDF7E1
:103010006DFF482106A8FDF7F8F8519800280AD05E
:1030200030A0334631A2482102950194009006A8B1
:1030300002F074FA0BE02BA14E98334631A20395AF
:10304000019400910290482106A802F067FA4021FD
:1030500028A8FDF7DAF806A8FDF70CF9059018A8DE
:10306000FDF708F9049028A8009006AA18A8059B67
:10307000049903F065F900204890402138A8FDF735
:10308000C4F828A8FDF7F6F8059028AB48AA402117
:10309000009038A8FDF7E8FF38A8FFF705FF519822
:1030A00000280CD038A80FA12B461EA20196009430
:1030B0000291039050994F9802F030FA0DE038A930
:1030C00008A24E982B460296009403920491019018
:1030D000224A50994F9802F021FA002088E7000018
:1030E0009554415D736861310000000025640A2534
:1030F000730A70726F64756374732F25730A257376
:103100000000000025640A25730A70726F647563FD
:1031100074732F25732F646576696365732F257328
:103120000A25730076657273696F6E3D257326728A
:1031300065733D70726F647563747325253246251F
:10314000732665743D2564266D6574686F643D253E
:1031500073267369676E3D2573000000F47C0000E0
:1031600000B595B00020119012901390149003A810
:1031700002900EA00FA312A23821009003A802F023
:10318000CDF911A8012302AA002100901420FFF715
:1031900069FC002807D1129A91B21198FEF7C6FD7A
:1031A00011A8FFF77FF915B000BD00006169725FDB
:1031B00030310000734D464369353377484800008D
:1031C000247379732F25732F25732F7468696E67A5
:1031D0002F70726F70657274792F736574000000C0
:1031E00030B5B3B000202F9030903190329001254F
:1031F000A02107AA33A3009301920291039033A365
:103200003E4A3FA141A0FFF7DBFE2FA8002102911B
:10321000039104910590084601217D23DB0029A23A
:103220000091019007A936A0FFF792F9002842D13A
:10323000309A91B22F98FEF779FDFA20FEF7B2FC92
:103240000446002C33D02046FFF7CAFD02282ED1B9
:103250002046FFF7B6FC030002F0B3F906040A0F9C
:1032600014191E232CA1324801F059FE00251DE03F
:1032700030A12F4801F053FE18E037A12C4801F08F
:103280004EFE13E03FA12A4801F049FE0EE047A19F
:10329000274801F044FE09E050A1254801F03FFE17
:1032A00004E05CA1224801F03AFE00BF00BF2FA855
:1032B000FFF7F8F803E060A11D4801F030FE284652
:1032C00033B030BD6169725F3031000062314E4E03
:1032D0005346413464326431515774455655786FC2
:1032E00051566C77565656575A584E436346567445
:1032F0004D314A4D5931453D000000007B07EE69D4
:10330000734D4643693533774848000032303138D1
:103310002D31302D33310000546970733A09E8BF04
:103320009EE68EA5E68890E58A9F0D0A00000000C3
:10333000000004405741524E3A09E8BF9EE68EA570
:10334000E5A4B1E8B4A5EFBC9AE58D8FE8AEAEE98F
:103350009499E8AFAF0D0A005741524E3A09E8BFC1
:103360009EE68EA5E5A4B1E8B4A5EFBC9AE99D9EC2
:10337000E6B395E79A84636C69656E7469640D0AB7
:10338000000000005741524E3A09E8BF9EE68EA564
:10339000E5A4B1E8B4A5EFBC9AE69C8DE58AA1E569
:1033A00099A8E5A4B1E8B4A50D0A00005741524E12
:1033B0003A09E8BF9EE68EA5E5A4B1E8B4A5EFBC46
:1033C0009AE794A8E688B7E5908DE68896E5AF86FB
:1033D000E7A081E99499E8AFAF0D0A005741524E3A
:1033E0003A09E8BF9EE68EA5E5A4B1E8B4A5EFBC16
:1033F0009AE99D9EE6B395E993BEE68EA528E6AFD1
:1034000094E5A682746F6B656EE99D9EE6B395297F
:103410000D0A00004552523A09E8BF9EE68EA5E526
:10342000A4B1E8B4A5EFBC9AE69CAAE79FA5E994ED
:1034300099E8AFAF0D0A00005741524E3A094D517D
:1034400054545F5061636B6574436F6E6E65637453
:10345000204661696C65640D0A000000F1B590B00A
:10346000192080010F90109E05460024CE48006868
:10347000401CCD4908600846CCA229460368304666
:1034800002F04CF80446002C01DBAC4202D30020D1
:1034900011B0F0BD36192D1BCEA00E90D3A00D900B
:1034A000D749C86CFDF714FA0A900B91D5A3019186
:1034B0000090294630460E9A02F030F80446002C5F
:1034C00001DBAC4201D30020E2E736192D1BCC49C9
:1034D0004C314868FDF7FCF90A900B91CEA301919D
:1034E0000090294630460E9A02F018F80446002C47
:1034F00001DBAC4201D30020CAE736192D1BC049BD
:103500004C318868FDF7E4F90A900B91C6A301914C
:103510000090294630460E9A02F000F80446002C2E
:1035200001DBAC4201D30020B2E736192D1BB449B0
:103530004C31C868FDF7CCF90A900B91BEA30191FC
:103540000090294630460E9A01F0E8FF0446002C10
:1035500001DBAC4201D300209AE736192D1BA849A4
:103560004C314869FDF7B4F90A900B91B6A301916B
:103570000090294630460E9A01F0D0FF0446002CF8
:1035800001DBAC4201D3002082E736192D1B9C4998
:103590004C310869FDF79CF90A900B91AEA301919B
:1035A0000090294630460E9A01F0B8FF0446002CE0
:1035B00001DBAC4201D300206AE736192D1B90488D
:1035C0008B304078AAA30090294630460D9A01F02E
:1035D000A5FF0446002C01DBAC4201D3002057E7D5
:1035E00036192D1B0027BCE07A1CA5A104A801F008
:1035F000ABFF44217943824A803A89188868FDF7F5
:1036000067F90290039104AB01910090294630467E
:103610000E9A01F083FF0446002C01DBAC4201D37B
:10362000002035E736192D1B7A1C9AA104A801F059
:103630008BFF44217943724A803A8918C868FDF7A4
:1036400047F90290039104AB01910090294630465E
:103650000E9A01F063FF0446002C01DBAC4201D35B
:10366000002015E736192D1B7A1C8FA104A801F044
:103670006BFF44217943624A803A89180869FDF753
:1036800027F90290039104AB01910090294630463E
:103690000E9A01F043FF0446002C01DBAC4201D33B
:1036A0000020F5E636192D1B7A1C83A104A801F031
:1036B0004BFF44217943524A803A89184869FDF703
:1036C00007F90290039104AB01910090294630461E
:1036D0000E9A01F023FF0446002C01DBAC4201D31B
:1036E0000020D5E636192D1B7A1C78A104A801F01C
:1036F0002BFF44217943424A803A89188869FDF7B3
:10370000E7F80290039104AB0191009029463046FE
:103710000E9A01F003FF0446002C01DBAC4201D3FA
:103720000020B5E636192D1B7A1C6CA104A801F007
:103730000BFF4420784332498039401840300078EC
:1037400004AB0090294630460D9A01F0E7FE04468E
:10375000002C01DBAC4201D3002099E636192D1B69
:103760007F1C032F00DA3FE71098301A0C900C985A
:10377000002807D00C98401E1099085C2C2801D115
:10378000761E6D1C5AA22946304601F0C7FE04463B
:10379000002C01DBAC4201D3002079E61098301AEE
:1037A000001980B274E600001C0100207B226964CD
:1037B000223A22256C75222C2276657273696F6E0F
:1037C000223A22312E30222C22706172616D7322D6
:1037D0003A7B0000222573223A7B2276616C756564
:1037E000223A252E31667D2C00000000222573220E
:1037F0003A7B2276616C7565223A25647D2C000047
:10380000B0010020686F73745F74656D70657261DC
:103810007475726500000000686F73745F68756D81
:103820006964697479000000686F73745F736D6F09
:10383000675F70706D000000686F73745F6761731D
:103840005F70706D00000000686F73745F706D32A0
:10385000355F76616C756500686F73745F666F7253
:103860006D616C6465687964655F7070620000000A
:10387000676C6F62616C5F66616E5F6D6F6465003F
:10388000736C61766525645F74656D7065726174D3
:1038900075726500736C61766525645F68756D6926
:1038A0006469747900000000736C61766525645F5B
:1038B000636F5F70706D0000736C61766525645F87
:1038C000736D6F675F70706D00000000736C6176E0
:1038D0006525645F6171695F70706D00736C6176FE
:1038E0006525645F66616E5F7370656564000000E6
:1038F0007D7D0000F1B59CB000201B901A90002146
:1039000019911891179116901590149013901C9876
:10391000FFF766FA16901698032804D004287DD085
:1039200009287CD1AAE3AE4817A918AA1BAB0092BC
:103930000191029019AA1AA91C98FFF753F9159042
:10394000159800286CD102901B9802F001FC12908F
:10395000A4A1129802F0DCFB1190A4A1119802F02E
:10396000D7FB0446002C0CD0A2691046E169FCF795
:103970006DFFA54908600846A4A10268AC4801F0A3
:10398000CEFAACA1119802F0C3FB0546002D0CD075
:10399000AA691046E969FCF759FFAD490860084675
:1039A000ACA10268A24801F0BAFAB3A1119802F0E2
:1039B000AFFB0646002E0CD0B2691046F169FCF749
:1039C00045FFB44908600846B3A10268984801F071
:1039D000A6FABAA1119802F09BFB0746002F0CD063
:1039E000BA691046F969FCF731FFBB49086008461F
:1039F000BAA102688E4801F092FAC1A1119802F0B2
:103A000087FB10901098002811D010988269C16926
:103A10001046FCF71BFFC149086002E024E33CE3C9
:103A200021E30846BEA10268814801F078FAC5A1E9
:103A3000119802F06DFB0F900F9800280DD00F9891
:103A40008269C1691046FCF701FFC5490860084654
:103A5000C4A10268764801F062FACBA1119802F085
:103A600057FB0E900E9800280DD00E988269C16900
:103A70001046FCF7EBFECB4908600846CAA1026875
:103A80006B4801F04CFAD1A1119802F041FB0D9066
:103A90000D9800280DD00D988269C1691046FCF779
:103AA000D5FED14908600846D0A10268604801F0FF
:103AB00036FAD7A1119802F02BFB0C900C98002835
:103AC0000DD00C988269C1691046FCF7BFFED7493A
:103AD00008600846D6A10268554801F020FADDA129
:103AE000119802F015FB0B900B9800280DD00B9845
:103AF0008269C1691046FCF7A9FEDD4908600846E5
:103B0000DCA102684A4801F00AFAE3A1119802F028
:103B1000FFFA0A900A9800280DD00A988269C169B4
:103B20001046FCF793FEE34908600846E2A10268EC
:103B30003F4801F0F4F9E9A1119802F0E9FA09907F
:103B4000099800280DD009988269C1691046FCF7D0
:103B50007DFEE94908600846E8A10268344801F0A2
:103B6000DEF9EFA1119802F0D3FA08900898002826
:103B70000DD008988269C1691046FCF767FEEF49CD
:103B800008600846EEA10268294801F0C8F9F5A1CD
:103B9000119802F0BDFA0790079800280DD00798F9
:103BA0008269C1691046FCF751FEF5490860084674
:103BB000F4A102681E4801F0B2F9FBA1119802F0CD
:103BC000A7FA06900698002809D006988269C1696C
:103BD0001046FCF73BFEFB4908600846F4E1F8E1BB
:103BE00020010020706172616D730000736C61765A
:103BF00065315F636F5F75707065725F7468726561
:103C000073686F6C640000004C000020736C617678
:103C100065315F636F5F75707065725F7468726540
:103C200073686F6C64203D2025640D0A000000005D
:103C300000000440736C617665315F736D6F675F80
:103C400075707065725F7468726573686F6C64001C
:103C500050000020736C617665315F736D6F675F34
:103C600075707065725F7468726573686F6C6420DC
:103C70003D2025640D0A0000736C617665315F7428
:103C8000656D705F6C6F7765725F7468726573687D
:103C90006F6C640054000020736C617665315F7452
:103CA000656D705F6C6F7765725F7468726573685D
:103CB0006F6C64203D2025640D0A0000736C6176F2
:103CC00065315F74656D705F75707065725F746883
:103CD000726573686F6C640058000020736C6176C5
:103CE00065315F74656D705F75707065725F746863
:103CF000726573686F6C64203D2025640D0A0000B6
:103D0000736C617665315F68756D695F6C6F77653F
:103D1000725F7468726573686F6C64005C00002089
:103D2000736C617665315F68756D695F6C6F77651F
:103D3000725F7468726573686F6C64203D202564DF
:103D40000D0A0000736C617665315F68756D695F9F
:103D500075707065725F7468726573686F6C64000B
:103D600060000020736C617665315F68756D695F16
:103D700075707065725F7468726573686F6C6420CB
:103D80003D2025640D0A0000736C617665325F6327
:103D90006F5F75707065725F7468726573686F6C61
:103DA0006400000084000020736C617665325F63FC
:103DB0006F5F75707065725F7468726573686F6C41
:103DC00064203D2025640D0A00000000736C6176BC
:103DD00065325F736D6F675F75707065725F746871
:103DE000726573686F6C640088000020736C617684
:103DF00065325F736D6F675F75707065725F746851
:103E0000726573686F6C64203D2025640D0A0000A4
:103E1000736C617665325F74656D705F6C6F77652A
:103E2000725F7468726573686F6C64008C00002048
:103E3000736C617665325F74656D705F6C6F77650A
:103E4000725F7468726573686F6C64203D202564CE
:103E50000D0A0000736C617665325F74656D705F8A
:103E600075707065725F7468726573686F6C6400FA
:103E700090000020736C617665325F74656D705FD1
:103E800075707065725F7468726573686F6C6420BA
:103E90003D2025640D0A0000736C617665325F6811
:103EA000756D695F6C6F7765725F74687265736852
:103EB0006F6C640094000020736C617665325F68FB
:103EC000756D695F6C6F7765725F74687265736832
:103ED0006F6C64203D2025640D0A0000736C6176D0
:103EE00065325F68756D695F75707065725F746863
:103EF000726573686F6C640098000020736C617663
:103F000065325F68756D695F75707065725F746842
:103F1000726573686F6C64203D2025640D0A000093
:103F2000736C617665335F636F5F75707065725F28
:103F30007468726573686F6C64000000B8000020DC
:103F4000736C617665335F636F5F75707065725F08
:103F50007468726573686F6C64203D2025640D0A77
:103F600000000000736C617665335F736D6F675F8F
:103F700075707065725F7468726573686F6C6400E9
:103F8000BC000020736C617665335F736D6F675F93
:103F900075707065725F7468726573686F6C6420A9
:103FA0003D2025640D0A0000736C617665335F74F3
:103FB000656D705F6C6F7765725F7468726573684A
:103FC0006F6C6400C000002041A10268494800F005
:103FD000A6FF49A1119802F09BF8059005980028CA
:103FE0000DD005988269C1691046FCF72FFC49493C
:103FF0000860084648A102683E4800F090FF4FA1C3
:10400000119802F085F80490049800280DD00498C7
:104010008269C1691046FCF719FC4F4908600846DF
:104020004EA10268334800F07AFF55A1119802F0C2
:104030006FF80390039800280DD003988269C16936
:104040001046FCF703FC55490860084654A1026875
:10405000284800F064FF129802F026F859A125487C
:1040600000F05DFF00BF00BF1C98FEF7A9FE00280E
:1040700003D15BA11F4800F052FF12E01C98FEF72D
:10408000EBFE002804D15EA11A4800F048FF03E0CF
:1040900062A1184800F043FF03E00020C0431590E0
:1040A00000BF00BFFDF770FD1598401C002801D12E
:1040B0001DB0F0BD16980F2802D01698032805D120
:1040C0001A9802F0EDF81B9802F0EAF800BFEFE74B
:1040D000736C617665335F74656D705F6C6F776567
:1040E000725F7468726573686F6C64203D2025642C
:1040F0000D0A000000000440736C617665335F7444
:10410000656D705F75707065725F746872657368F5
:104110006F6C6400C4000020736C617665335F745B
:10412000656D705F75707065725F746872657368D5
:104130006F6C64203D2025640D0A0000736C61766D
:1041400065335F68756D695F6C6F7765725F746802
:10415000726573686F6C6400C8000020736C6176D0
:1041600065335F68756D695F6C6F7765725F7468E2
:10417000726573686F6C64203D2025640D0A000031
:10418000736C617665335F68756D695F75707065B6
:10419000725F7468726573686F6C6400CC00002095
:1041A000736C617665335F68756D695F7570706596
:1041B000725F7468726573686F6C64203D2025645B
:1041C0000D0A0000634A534F4E5F44656C65746589
:1041D000287261775F6A736F6E2920204F4B000051
:1041E000546970733A094D515454205075626C698A
:1041F00073682053656E64204F4B0D0A0000000069
:10420000546970733A094D51545420537562736365
:1042100072696265204F4B0D0A000000546970738B
:104220003A094D5154542053756273637269626543
:10423000204572720D0A000070B5324B9D4400217A
:1042400031486844016341638163C16300250024F0
:104250002D49283102A8FBF7D8FF02A8FFF7FEF886
:104260000646002E45DD35B22848684400232A461C
:1042700027A1009028A0FEF7C5FB002834D10AE052
:1042800002A9095D20486844426B531C4363006BDC
:104290008154601C04B2AC42F2DB1B4A6A44526B8C
:1042A00091B2194A6A44106BFDF740FD1DA12048E8
:1042B00000F035FE1FA11E4800F031FE002406E08C
:1042C00002A8015D1A4800F067FE601C04B202A853
:1042D000005D0028F4D11FA1154800F020FE0B4816
:1042E0006844FEF7DFF808E024A1114800F017FE4B
:1042F00003E02AA10E4800F012FE29239B019D44F1
:1043000070BD0000C0F5FFFF000A0000300A000089
:104310006169725F30310000734D46436935337710
:104320004848000053656E64204F4B0D0A000000A2
:10433000000004400D0A2D2D2D204F6E654E455472
:10434000204A534F4E205061796C6F6164202D2DAF
:104350002D0D0A000D0A2D2D2D2D2D2D2D2D2D2D40
:104360002D2D2D2D2D2D2D2D2D2D2D2D2D2D2D2D7D
:104370002D2D2D2D2D2D2D0D0A0000005741524EB3
:104380003A202020204544505F4E6577427566668E
:104390006572204661696C65640D0A004552524F92
:1043A000523A204F6E654E65745F46696C6C42757B
:1043B00066206661696C6564210D0A00FFB583B0F3
:1043C00006460F461D460C9CA81CC0B20290A81DB4
:1043D0000190AA20207002986070A670E770002DEE
:1043E00004DD2A46201D0599FBF7F6FE601C0299A4
:1043F000FDF718F8291D60545521681D21543A46CF
:1044000031460348019B03F001FB019807B0F0BD62
:10441000AC7C00007047000000B591B00AA10C48C8
:10442000FBF72FFF002807D101A800F0D1FB01A95D
:10443000084800F074FD04E003A2054906A003F05B
:10444000E5FA11B000BD00004441544100000000F5
:10445000D802002000000440444542554720556ED4
:104460006B6E6F776E2041535250524F20434D4434
:104470003A205B25735D2076732045787065637400
:1044800065643A205B25735D0D0A00000020034936
:10449000087003490880034908707047D400002061
:1044A000D6000020D800002070470000042806D164
:1044B0000649096904221143044A116105E00349D0
:1044C000096904229143014A1161704700E000E04C
:1044D000002803D10021094A91610EE0012806D18C
:1044E0000649096901221143044A116105E00349A3
:1044F000096949084900014A1161704700E000E07C
:10450000002806D00649096902221143044A1161B4
:1045100005E00349096902229143014A116170478C
:1045200000E000E0014948617047000000E000E061
:104530000EB50020009001900922054902906846BE
:10454000FBF74AFE092269460248FBF745FE0EBD0D
:104550004D0200204402002010B5294800780028B0
:1045600004D000F081FF00202549087024484078DD
:10457000002804D000F09AFF00202149487020480C
:104580008078002804D000F007FE00201C498870C5
:104590001B48C078002804D000F056FF00201849BE
:1045A000C87017480079002804D000F041FF0020AF
:1045B0001349087112484079002804D000F0B8FE71
:1045C00000200F4948710E488079002804D000F07F
:1045D0002BFF00200A4988710948C079002804D0BF
:1045E00000F006FF00200649C8710548007A00283F
:1045F00004D000F0D7FD00200149087210BD000072
:104600004402002010B524480068401C224908607C
:104610000120224908714871FF21F5311E480068C8
:10462000FBF7AAFD002902D101201C4988711C4911
:1046300019480068FBF7A0FD642902D10120174941
:10464000C8717D21090114480068FBF795FD002918
:1046500002D1012011490870FF21F5310E48006890
:10466000FBF78AFD0A2902D101200C4908720C4986
:1046700009480068FBF780FD002902D101200749A5
:104680004870084904480068FBF776FD002902D10C
:1046900001200249887010BDD00000204402002093
:1046A000881300007427000010205849C8600120BA
:1046B000574908605748006B402108435549086333
:1046C00000BF554880682728FBD103E00120400245
:1046D00051494860504840680121490208408842D9
:1046E000F4D102E000204C4948604B484068012169
:1046F000490208400028F5D1454908604548406A0C
:1047000003218902884343494862084640680121E1
:10471000C90208433F49486000BF3E48806800071F
:10472000C00F0028F9D03B484068C008C000C01C3A
:104730003849486000BF3748406B4007400F0328A6
:10474000F9D136480068C008C000401C33490860F1
:1047500000203049086208464068491588432D49C1
:10476000486008460068891508432A4908600846D9
:104770004068091508432749486000BF25488068FC
:104780004007C00F0028F9D02248006B4021884321
:104790002049086308460068891588431D49086058
:1047A00003200006886108464068491508431949F6
:1047B000486000BF174880688007C00F0028F9D004
:1047C00016480068C008C000801C1449086000201A
:1047D0001049086208464068C008C000401C486094
:1047E00000BF0C48406B4007400F0128F9D10B482F
:1047F0000068102108430949086008460068012143
:10480000090308430549086070470000008108401B
:10481000008308400080084000A1064000020840D4
:1048200000B587B000200190029003900121890219
:104830000298884340180290090102988843401862
:104840000290C9000198884340180190012301A8F3
:1048500007C8FCF7B9FD002208211C48FDF7BAFA89
:10486000062204210120FCF7ABFA062208210120D0
:10487000FCF7A6FAE12040020490FF2101316846CE
:1048800081820021C1820183418304A9104800F084
:10489000E1FA012211460E4800F032FB012200210C
:1048A0000B4800F02DFB01221146094800F018FBCF
:1048B000192001218140074A116000BF00F010F962
:1048C00005A10D4800F02BFB07B000BD00200B40F8
:1048D0000010004000E100E0554152543020436F89
:1048E0006E6669677572656420666F722041535207
:1048F00050524F2E0D0A00000000044038B5FF2131
:104900000131354800F09CFA012837D101023248C4
:1049100000F092FA31488088002805D10022042155
:104920002D4800F0DDFA29E0002423E02B488088A0
:10493000002818DD29484088294A115C264800F0E3
:10494000DDFA26494988481CC117090E09180912C1
:104950000902411A8AB221494A8008468088401ECD
:1049600081B21E4881801D488088002800D103E064
:10497000601C84B2012CD9DB00BF00BF2021164887
:1049800000F05EFA012826D116488088FF281ADC3C
:10499000114800F0AFFAC1B212480088124A11540F
:1049A00010490988481CC117090E09180912090283
:1049B000411A8AB20B490A8008468088401C81B29D
:1049C0000848818007E0044800F094FA009007A0AE
:1049D00003F01CF800BF38BD00100040F4040020B4
:1049E000F4030020EC030020EC0200205541525457
:1049F0003020525820427566666572204F76657287
:104A0000666C6F77210D0A003049898800290BD127
:104A10002F490978002907DD2E490978002903D19B
:104A20002B4A11702C4A117028498988002901DD10
:104A30002849097841E025494988284A505C234A99
:104A40005288511CCA17120E5218121212028A1AD8
:104A500093B21E4A538072B61C498988491E8AB295
:104A60001A498A8062B60A2801D00D2813D1184944
:104A70000978002908DD0021174A154B1B78D1540D
:104A80000121144A117002E00021134A1170002123
:104A90000F4A117011E00E490978132908D20C4908
:104AA0000A780978491C0A4B19700B49885404E0AC
:104AB0000021074A1170084A1170044989880029A9
:104AC00003DD044909780029B5D07047EC030020C4
:104AD000E5000020E4000020D8020020EC020020C5
:104AE0000021044841800180818003484180018089
:104AF00081807047EC030020F404002070B5044668
:104B00000D46002620E000BF2E488088FF28FBDCF1
:104B100072B63046711C8EB2215C2A4800882A4A3F
:104B2000115428490988481CC117090E091809128F
:104B30000902411A8AB223490A8008468088401C2B
:104B400081B22048818062B62846691ECDB2002815
:104B5000D9D11C488088002832DD012204211B485D
:104B600000F0BEF98021194800F06AF9012827D128
:104B700014488088002823DD12484088124A115CBE
:104B8000124800F0BBF90F494988481CC117090EAB
:104B9000091809120902411A8AB20A494A8072B6F2
:104BA00008488088401E81B20648818062B6054868
:104BB0008088002804D100220421044800F090F9E4
:104BC00070BD0000F4040020F40300200010004039
:104BD00010B5044604E001212046FFF78FFF641C56
:104BE00020780028F7D110BD10B52021144800F01E
:104BF00027F901280CD1124800F07CF9C4B2114801
:104C00000068002803D020460E490968884700BF85
:104C100002210B4800F014F9012806D1084800F0E1
:104C200069F90221064800F007F90821044800F05C
:104C300007F9012803D10821014800F0FDF810BD53
:104C4000001004400401002000B587B029482A491B
:104C500008600020019002900390012189030298CE
:104C600088434018029089000198884340180190B9
:104C700009120298884340180290012301A807C82E
:104C8000FCF7A2FB002208211C48FDF7A3F806222E
:104C900004210020FCF794F8062208210020FCF7EC
:104CA0008FF80020049005900690E12040020490C7
:104CB000FF210131684681820021C1820183418345
:104CC00004A90120800700F0C5F81720FEF7E2F8DC
:104CD00001221146900700F003F9012200219007FC
:104CE00000F00EF901221146900700F009F907B013
:104CF00000BD00007C050020F000002000000B40FB
:104D000010B52021480600F09BF8002819D00D4866
:104D1000008801218902884202D3002009490880C5
:104D2000012080070068C1B2064802880088401C44
:104D3000044B18800448815401214902480500F0C1
:104D40007BF810BD180100204206002000B587B096
:104D5000002004900590069001218903059888435E
:104D60004018059089000498884340180490C911A0
:104D70000598884340180590012304A807C8FCF74C
:104D800023FB002220211A48FDF724F806221021D7
:104D90000020FCF715F8062220210020FCF710F86F
:104DA0000020019002900390E12040020190FF2139
:104DB000013168460181002141818181C18101A9C0
:104DC0000C4800F047F8012211460A4800F088F824
:104DD0001820FEF75FF801220021064800F090F845
:104DE00001221146034800F08BF807B000BD000017
:104DF00000000B400000044010B520210D4800F0D9
:104E00001FF8002807D00B4800F074F8C4B2204601
:104E1000FDF768F800BF0221064800F011F80128EC
:104E200006D1044800F066F80221024800F004F8B8
:104E300010BD00000000044002690A400261704792
:104E4000024610690840002801D001207047002068
:104E5000FCE7000070B504460D4660681C49084038
:104E6000E9880843A98808432989084369890843D0
:104E7000606001208007844207D11820FCF788FA7F
:104E800006462968FBF778F960621248844207D128
:104E90001A20FCF77DFA06462968FBF76DF9606277
:104EA0000D48844207D11C20FCF772FA0646296897
:104EB000FBF762F960620948844207D11E20FCF7C3
:104EC00067FA06462968FBF757F9606270BD000073
:104ED000FCE0FFFF00000440001000400010044010
:104EE000002A03D0C3680B43C36002E0C3688B434E
:104EF000C36070470146086880B270470160704720
:104F000010B5002A05D0436810248C402343436029
:104F100004E0436810248C40A343436010BD0FB4E9
:104F200010B5CCB0044650A80190FF21293102A849
:104F3000019B4F9A00F01CFB0020019002A9204623
:104F400000F005F84CB010BC08BC04B0184770B5B0
:104F500006460C46002505E0615D304600F01CF871
:104F6000681CC5B2605D0028F6D170BDF8B5074673
:104F70000D46164600240CE0295D3846FFF7BEFFBB
:104F800000BF80213846FFF75BFF0028F9D0601C86
:104F900084B2B442F0DBF8BD70B504460D46294634
:104FA0002046FFF7ABFF00BF80212046FFF748FFF8
:104FB0000028F9D070BD0EB500200090019002903D
:104FC000012189030198884340180190C900009885
:104FD0008843401800908911019888434018019037
:104FE0000123684607C8FCF7EFF90EBD10B506228D
:104FF00010210120FBF7E4FE062220210120FBF70F
:10500000DFFE002220210248FCF7E4FE10BD000074
:1050100000200B401A2001218140024A116000BF8C
:105020007047000000E100E00EB5E1204002009072
:10503000FF210131684681800021C18001814181C9
:1050400069460948FFF706FF012200210648FFF7DD
:1050500057FF012211460448FFF752FF0122114673
:105060000148FFF73DFF0EBD0010044001465029E6
:1050700001DB642070471E2901DB3C20FAE70F2981
:1050800001DB1E20F6E70020F4E7000010B504461F
:1050900007492046FBF76AFC01D80A2010BD0549E4
:1050A0002046FBF763FC01D80520F7E70020F5E771
:1050B000000070410000A04010B50446074920469A
:1050C000FBF754FC01D2052010BD05492046FBF733
:1050D00043FC01D20320F7E70020F5E700009642E9
:1050E0000000F04110B504460B492046FBF73EFC9A
:1050F00001D80A2010BD09492046FBF737FC01D82A
:105100000620F7E706492046FBF730FC01D80320CC
:10511000F0E70020EEE70000000016430000964292
:1051200000000C4210B5044604492046FBF71EFC63
:1051300001D80A2010BD0020FCE7000000009643C3
:1051400010B5044607492046FBF710FC01D20520A4
:1051500010BD05492046FBF7FFFB01D20320F7E70E
:105160000020F5E70000F0410000704110B5044652
:1051700007492046FBF7FAFB01D8082010BD054976
:105180002046FBF7F3FB01D80420F7E70020F5E702
:10519000000048430000484210B5FFF74DF8FCF707
:1051A000F3FC10BDF0B589B0002467E0601CC7B205
:1051B0004420604333494018403001784420604324
:1051C000304A801840308078814226D044206043A5
:1051D0001146401840300678442060434018403063
:1051E000837832463946284802F010FC01AA31463D
:1051F0003846FCF76AFA85B2002D0DDD294601A874
:10520000FCF728F8394621A002F000FC4420604356
:105210001C4940184030867000BF44206043194943
:1052200040184030417844206043164A801840308E
:10523000C078814221D0442060431146401840305C
:105240004678324639461EA002F0E0FB01AA3146FC
:105250003846FCF72DFA85B2002D0DDD294601A850
:10526000FBF7F8FF394624A002F0D0FB442060434E
:10527000044940184030C67000BF641C032C95DB05
:1052800009B0F0BD30010020907B0000444953502C
:10529000415443483A2053656E742066616E206322
:1052A0006F6D6D616E6420746F20536C6176652044
:1052B00025642076696120554152542E0D0A000064
:1052C00044495350415443483A20536C6176652019
:1052D000256420616C61726D207374617475732034
:1052E0006368616E67656421205461726765743A12
:1052F0002025640D0A00000044495350415443489E
:105300003A2053656E7420616C61726D20636F6D1D
:105310006D616E6420746F20536C61766520256426
:105320002076696120554152542E0D0A000000007C
:1053300038B56846FCF782FD00283ED06846007804
:10534000012802D0022836D10EE0684640780028B5
:1053500009D1684681781948417001210B38C17222
:1053600017A002F053FB27E068464078012821DBB4
:105370006846407803281DDC68464078401EC4B269
:105380006846817862000D48801C10184170012128
:1053900062000A48801C8154684681780DA002F0A2
:1053A00035FB6846817844206043104A80184030BD
:1053B000017000BF00E000BF00BF38BD3B0200200D
:1053C000484D49206D6F64655F72657175657374D2
:1053D0002E0D0A00484D492066616E5F636F6D6D4A
:1053E000616E64253032582E0D0A00003001002015
:1053F00010B503A002F00AFBFCF72CFE10BD000064
:105400005343484544554C45523A2043616C6C69BE
:105410006E672049415120416C676F726974686DF5
:105420002E2E2E0D0A00000010B5FCF78DFE10BDCB
:1054300010B50020FCF7B6FB0446002C02D0204635
:10544000FEF758FA10BD000010B5FFF7DDFA054869
:105450000078002804D0002002490870FEF7DCFF25
:1054600010BD0000E40000201CB5694601A8FCF74F
:10547000A7F868460079FBF7A6F90B49C8646846A7
:105480000078FBF7A0F908494C314860FCF7A0FE12
:1054900005494C318860FCF771FF0446FBF793F92E
:1054A00001494C31C8601CBDB001002010B5104945
:1054B000C86CFBF7B1F9044622460EA10EA0FCF71A
:1054C00087FD0B494C314868FBF7A6F90446224694
:1054D00008A10CA0FCF77CFD05494C318868FBF75E
:1054E0009BF90446224603A109A0FCF771FD10BDFB
:1054F000B001002076616C0070305F686F6D652EC2
:105500006E34000070305F686F6D652E6E31000084
:1055100070305F686F6D652E6E3200000FB41CB581
:105520000A46521E0192009007A9064B6A46069849
:1055300000F0AEF9009A002111701CBC08BC04B048
:1055400018470000C95F00000FB410B504A9074B4D
:1055500002AA039800F09CF9044602A9002000F07A
:105560003EFD204610BC08BC04B01847DF5F0000B9
:105570007CB51C461546491E01910090044B6A46B5
:105580002146284600F084F9009A002111707CBD64
:10559000C95F00002021020C01D010211046020A30
:1055A00001D010460839020901D01046091F8208AF
:1055B00001D01046891E420801D0881E7047081A83
:1055C000704730B47446641E2578641CAB4204D323
:1055D000635D5B00E31830BC18471D46F8E7000028
:1055E0004900CA020243100000D004204A0D01D035
:1055F00001221043044A490D914201D1022108437E
:10560000012800D105207047FF070000F8B50446C7
:105610004F1EC8000838211815461E4608684968FC
:105620003A4606239A4310D02A463346FAF7E0FF5B
:105630003A46D200083AA3181A687F1E5B68FAF748
:1056400025FF06223B469343EED1022F23D0042FA1
:1056500011D0062F2FD12A463346FAF7C9FFE36A45
:10566000A26AFAF713FF2A463346FAF7C1FF636AC4
:10567000226AFAF70BFF2A463346FAF7B9FFE369C5
:10568000A269FAF703FF2A463346FAF7B1FF6369C6
:105690002269FAF7FBFE2A463346FAF7A9FFE368C8
:1056A000A268FAF7F3FE2A463346FAF7A1FF6368C9
:1056B0002268FAF7EBFEF8BD002210B5134610463B
:1056C0000149FAF7FDFF10BD0000F03F10B5FAF7F1
:1056D000DDFE10BD002210B5134610461146FAF744
:1056E000EFFF10BD10B50721024A00200907FBF7A4
:1056F0004BFA10BD01030000034A10B5002011074A
:10570000FBF742FA10BD000001FDFFFF02E008C8F0
:10571000121F08C1002AFAD170477047002001E02B
:1057200001C1121F002AFBD1704700000149086027
:10573000704700002C010020F0B51FB484B007981A
:105740000699020D014314D04A484B4910184843AA
:1057500005140F9801280E981CD0281A401C00240C
:10576000464E4749009401910290002814DA4742BE
:1057700027E00F98012443A3012808D000210498B2
:105780000F9A84600360C260416009B0F0BD0E985A
:10579000C143F4E74042E2E7074612E0F80707D0CA
:1057A0002246334601990098FAF722FF01910090B2
:1057B0002246334610461946FAF71AFF04460E46AB
:1057C0007F10002FEAD10298019B0028009A0799C8
:1057D000069802DAFAF70CFF01E0FAF771FF0446C7
:1057E0000E460022284BFBF787F803D80020C04361
:1057F000014607E00022254B20463146FAF746FED7
:10580000FBF7D8F9102409E0002C0ADB0A22002358
:10581000FBF7B6F8059B30321A55641E02460A4360
:10582000F2D11122641C059B121B1C190F9B012B2A
:1058300003D0012308430ED10AE0084304D011200D
:105840000E9000200F9084E70E98151A6D1E0BE045
:105850000E98824202DD00236D1C03E0824201DAD1
:1058600000236D1E002BEED004980F998260C1605A
:1058700030C08AE701FCFFFF104D0000000024400B
:105880000000F03F300000000000F0430000E03F67
:10589000FFB597B00646002518E2252877D10024E9
:1058A0002746FD49049400E00443761C3278012029
:1058B000203A90400842F7D130782A280ED00222B0
:1058C000307801463039092916D804990A235943FA
:1058D000303940181443761C0490F1E7189802C838
:1058E00004911890002904DA01204003044348423F
:1058F000049002200443761C30782E2814D1042012
:1059000004437078761C2A2809D11898761C80C820
:10591000189009E00A214F43303FC719761C3078B0
:10592000014630390929F5D930786C2810D006DCC9
:105930004C281AD068280ED06A2817D104E07428A1
:1059400013D07A2812D110E00120400504430CE066
:105950000121090501E0032109050C437178814209
:1059600003D1012000052418761C761C3078119094
:1059700066280BD013DC58287DD009DC00287BD0AA
:105980004528F6D04628F4D047281AD1A5E118E0DA
:10599000632835D0642870D0652812D19DE1702825
:1059A0006CD008DC6728F1D069287BD06E280DD038
:1059B0006F2806D1BAE073282ED0752871D07828C8
:1059C00059D01A9A199990476D1C7EE16002400FD8
:1059D000022809D003280DD00428189801680DD09A
:1059E0000D60001D189070E11898EA1701680D60AD
:1059F0004A60F6E7189801680D80F2E70D70F0E74D
:105A000018986A4601781172001D18900020507293
:105A100002A80090012005E0189802C81890002004
:105A20000091C04361070DD5002101E00199491C97
:105A30000191B94212DA8142F8DB009A515C0029E7
:105A4000F4D10BE0002101E00199491C0191814250
:105A5000FADB019A0099895C0029F5D10199049833
:105A60001A9B471A21463846199A00F097FA01996D
:105A7000401945180BE04FE02CE113E04EE0009890
:105A800000990078491C00911A9A19999047019839
:105A9000401E0190401CF2D1214638461A9B199AAB
:105AA00010E137E00A200021009001916002410FCF
:105AB000022907D0189A01CA1892C21794460329DE
:105AC00008D00AE01898C01DC108C90005C918917E
:105AD000944607E000B2C2179446042902D140B2AE
